{
  "_format": "hh-sol-artifact-1",
  "contractName": "Badges",
  "sourceName": "src/Badges.sol",
  "abi": [
    {
      "inputs": [],
      "stateMutability": "nonpayable",
      "type": "constructor"
    },
    {
      "anonymous": false,
      "inputs": [
        {
          "indexed": false,
          "internalType": "address",
          "name": "previousAdmin",
          "type": "address"
        },
        {
          "indexed": false,
          "internalType": "address",
          "name": "newAdmin",
          "type": "address"
        }
      ],
      "name": "AdminChanged",
      "type": "event"
    },
    {
      "anonymous": false,
      "inputs": [
        {
          "indexed": true,
          "internalType": "uint256",
          "name": "tokenId",
          "type": "uint256"
        },
        {
          "indexed": true,
          "internalType": "address",
          "name": "from",
          "type": "address"
        }
      ],
      "name": "BadgeReinstated",
      "type": "event"
    },
    {
      "anonymous": false,
      "inputs": [
        {
          "indexed": true,
          "internalType": "uint256",
          "name": "tokenId",
          "type": "uint256"
        },
        {
          "indexed": true,
          "internalType": "address",
          "name": "from",
          "type": "address"
        },
        {
          "indexed": true,
          "internalType": "uint8",
          "name": "reason",
          "type": "uint8"
        }
      ],
      "name": "BadgeRevoked",
      "type": "event"
    },
    {
      "anonymous": false,
      "inputs": [
        {
          "indexed": true,
          "internalType": "address",
          "name": "beacon",
          "type": "address"
        }
      ],
      "name": "BeaconUpgraded",
      "type": "event"
    },
    {
      "anonymous": false,
      "inputs": [
        {
          "indexed": false,
          "internalType": "uint8",
          "name": "version",
          "type": "uint8"
        }
      ],
      "name": "Initialized",
      "type": "event"
    },
    {
      "anonymous": false,
      "inputs": [
        {
          "indexed": true,
          "internalType": "address",
          "name": "previousOwner",
          "type": "address"
        },
        {
          "indexed": true,
          "internalType": "address",
          "name": "newOwner",
          "type": "address"
        }
      ],
      "name": "OwnershipTransferred",
      "type": "event"
    },
    {
      "anonymous": false,
      "inputs": [
        {
          "indexed": false,
          "internalType": "string[]",
          "name": "specUris",
          "type": "string[]"
        },
        {
          "indexed": false,
          "internalType": "address",
          "name": "sender",
          "type": "address"
        }
      ],
      "name": "RefreshMetadata",
      "type": "event"
    },
    {
      "anonymous": false,
      "inputs": [
        {
          "indexed": true,
          "internalType": "address",
          "name": "to",
          "type": "address"
        },
        {
          "indexed": false,
          "internalType": "string",
          "name": "specUri",
          "type": "string"
        },
        {
          "indexed": true,
          "internalType": "uint256",
          "name": "raftTokenId",
          "type": "uint256"
        },
        {
          "indexed": true,
          "internalType": "address",
          "name": "raftAddress",
          "type": "address"
        }
      ],
      "name": "SpecCreated",
      "type": "event"
    },
    {
      "anonymous": false,
      "inputs": [
        {
          "indexed": true,
          "internalType": "address",
          "name": "from",
          "type": "address"
        },
        {
          "indexed": true,
          "internalType": "address",
          "name": "to",
          "type": "address"
        },
        {
          "indexed": true,
          "internalType": "uint256",
          "name": "tokenId",
          "type": "uint256"
        }
      ],
      "name": "Transfer",
      "type": "event"
    },
    {
      "anonymous": false,
      "inputs": [
        {
          "indexed": true,
          "internalType": "address",
          "name": "implementation",
          "type": "address"
        }
      ],
      "name": "Upgraded",
      "type": "event"
    },
    {
      "inputs": [
        {
          "internalType": "address",
          "name": "_owner",
          "type": "address"
        }
      ],
      "name": "balanceOf",
      "outputs": [
        {
          "internalType": "uint256",
          "name": "",
          "type": "uint256"
        }
      ],
      "stateMutability": "view",
      "type": "function"
    },
    {
      "inputs": [
        {
          "internalType": "string",
          "name": "_specUri",
          "type": "string"
        },
        {
          "internalType": "uint256",
          "name": "_raftTokenId",
          "type": "uint256"
        }
      ],
      "name": "createSpec",
      "outputs": [],
      "stateMutability": "nonpayable",
      "type": "function"
    },
    {
      "inputs": [
        {
          "internalType": "address",
          "name": "_from",
          "type": "address"
        },
        {
          "internalType": "address",
          "name": "_to",
          "type": "address"
        },
        {
          "internalType": "string",
          "name": "_uri",
          "type": "string"
        }
      ],
      "name": "getAgreementHash",
      "outputs": [
        {
          "internalType": "bytes32",
          "name": "",
          "type": "bytes32"
        }
      ],
      "stateMutability": "view",
      "type": "function"
    },
    {
      "inputs": [
        {
          "internalType": "address",
          "name": "_to",
          "type": "address"
        },
        {
          "internalType": "string",
          "name": "_uri",
          "type": "string"
        }
      ],
      "name": "getBadgeIdHash",
      "outputs": [
        {
          "internalType": "bytes32",
          "name": "",
          "type": "bytes32"
        }
      ],
      "stateMutability": "view",
      "type": "function"
    },
    {
      "inputs": [],
      "name": "getDataHolderAddress",
      "outputs": [
        {
          "internalType": "address",
          "name": "",
          "type": "address"
        }
      ],
      "stateMutability": "view",
      "type": "function"
    },
    {
      "inputs": [],
      "name": "getGeorge",
      "outputs": [
        {
          "internalType": "string",
          "name": "",
          "type": "string"
        }
      ],
      "stateMutability": "pure",
      "type": "function"
    },
    {
      "inputs": [
        {
          "internalType": "address",
          "name": "_issuer",
          "type": "address"
        },
        {
          "internalType": "string",
          "name": "_uri",
          "type": "string"
        },
        {
          "internalType": "bytes32",
          "name": "_root",
          "type": "bytes32"
        }
      ],
      "name": "getMerkleAgreementHash",
      "outputs": [
        {
          "internalType": "bytes32",
          "name": "",
          "type": "bytes32"
        }
      ],
      "stateMutability": "view",
      "type": "function"
    },
    {
      "inputs": [
        {
          "internalType": "address",
          "name": "_to",
          "type": "address"
        },
        {
          "internalType": "string",
          "name": "_uri",
          "type": "string"
        },
        {
          "internalType": "bytes",
          "name": "_signature",
          "type": "bytes"
        }
      ],
      "name": "give",
      "outputs": [
        {
          "internalType": "uint256",
          "name": "",
          "type": "uint256"
        }
      ],
      "stateMutability": "nonpayable",
      "type": "function"
    },
    {
      "inputs": [
        {
          "internalType": "address[]",
          "name": "_recipients",
          "type": "address[]"
        },
        {
          "internalType": "string",
          "name": "_uri",
          "type": "string"
        },
        {
          "internalType": "bytes[]",
          "name": "_signatures",
          "type": "bytes[]"
        }
      ],
      "name": "giveToMany",
      "outputs": [],
      "stateMutability": "nonpayable",
      "type": "function"
    },
    {
      "inputs": [
        {
          "internalType": "string",
          "name": "_name",
          "type": "string"
        },
        {
          "internalType": "string",
          "name": "_symbol",
          "type": "string"
        },
        {
          "internalType": "string",
          "name": "_version",
          "type": "string"
        },
        {
          "internalType": "address",
          "name": "_nextOwner",
          "type": "address"
        },
        {
          "internalType": "address",
          "name": "_specDataHolderAddress",
          "type": "address"
        }
      ],
      "name": "initialize",
      "outputs": [],
      "stateMutability": "nonpayable",
      "type": "function"
    },
    {
      "inputs": [
        {
          "internalType": "uint256",
          "name": "_badgeId",
          "type": "uint256"
        }
      ],
      "name": "isBadgeValid",
      "outputs": [
        {
          "internalType": "bool",
          "name": "",
          "type": "bool"
        }
      ],
      "stateMutability": "view",
      "type": "function"
    },
    {
      "inputs": [
        {
          "internalType": "address",
          "name": "_from",
          "type": "address"
        },
        {
          "internalType": "string",
          "name": "_uri",
          "type": "string"
        },
        {
          "internalType": "bytes",
          "name": "_signature",
          "type": "bytes"
        },
        {
          "internalType": "bytes32",
          "name": "root",
          "type": "bytes32"
        },
        {
          "internalType": "bytes32[]",
          "name": "proof",
          "type": "bytes32[]"
        }
      ],
      "name": "merkleTake",
      "outputs": [
        {
          "internalType": "uint256",
          "name": "",
          "type": "uint256"
        }
      ],
      "stateMutability": "nonpayable",
      "type": "function"
    },
    {
      "inputs": [],
      "name": "name",
      "outputs": [
        {
          "internalType": "string",
          "name": "",
          "type": "string"
        }
      ],
      "stateMutability": "view",
      "type": "function"
    },
    {
      "inputs": [],
      "name": "owner",
      "outputs": [
        {
          "internalType": "address",
          "name": "",
          "type": "address"
        }
      ],
      "stateMutability": "view",
      "type": "function"
    },
    {
      "inputs": [
        {
          "internalType": "uint256",
          "name": "_tokenId",
          "type": "uint256"
        }
      ],
      "name": "ownerOf",
      "outputs": [
        {
          "internalType": "address",
          "name": "",
          "type": "address"
        }
      ],
      "stateMutability": "view",
      "type": "function"
    },
    {
      "inputs": [],
      "name": "proxiableUUID",
      "outputs": [
        {
          "internalType": "bytes32",
          "name": "",
          "type": "bytes32"
        }
      ],
      "stateMutability": "view",
      "type": "function"
    },
    {
      "inputs": [
        {
          "internalType": "string[]",
          "name": "_specUris",
          "type": "string[]"
        }
      ],
      "name": "refreshMetadata",
      "outputs": [],
      "stateMutability": "nonpayable",
      "type": "function"
    },
    {
      "inputs": [
        {
          "internalType": "uint256",
          "name": "_raftTokenId",
          "type": "uint256"
        },
        {
          "internalType": "uint256",
          "name": "_badgeId",
          "type": "uint256"
        }
      ],
      "name": "reinstateBadge",
      "outputs": [],
      "stateMutability": "nonpayable",
      "type": "function"
    },
    {
      "inputs": [],
      "name": "renounceOwnership",
      "outputs": [],
      "stateMutability": "nonpayable",
      "type": "function"
    },
    {
      "inputs": [
        {
          "internalType": "uint256",
          "name": "_raftTokenId",
          "type": "uint256"
        },
        {
          "internalType": "uint256",
          "name": "_badgeId",
          "type": "uint256"
        },
        {
          "internalType": "uint8",
          "name": "_reason",
          "type": "uint8"
        }
      ],
      "name": "revokeBadge",
      "outputs": [],
      "stateMutability": "nonpayable",
      "type": "function"
    },
    {
      "inputs": [
        {
          "internalType": "address",
          "name": "_dataHolder",
          "type": "address"
        }
      ],
      "name": "setDataHolder",
      "outputs": [],
      "stateMutability": "nonpayable",
      "type": "function"
    },
    {
      "inputs": [
        {
          "internalType": "bytes4",
          "name": "_interfaceId",
          "type": "bytes4"
        }
      ],
      "name": "supportsInterface",
      "outputs": [
        {
          "internalType": "bool",
          "name": "",
          "type": "bool"
        }
      ],
      "stateMutability": "view",
      "type": "function"
    },
    {
      "inputs": [],
      "name": "symbol",
      "outputs": [
        {
          "internalType": "string",
          "name": "",
          "type": "string"
        }
      ],
      "stateMutability": "view",
      "type": "function"
    },
    {
      "inputs": [
        {
          "internalType": "address",
          "name": "_from",
          "type": "address"
        },
        {
          "internalType": "string",
          "name": "_uri",
          "type": "string"
        },
        {
          "internalType": "bytes",
          "name": "_signature",
          "type": "bytes"
        }
      ],
      "name": "take",
      "outputs": [
        {
          "internalType": "uint256",
          "name": "",
          "type": "uint256"
        }
      ],
      "stateMutability": "nonpayable",
      "type": "function"
    },
    {
      "inputs": [
        {
          "internalType": "uint256",
          "name": "_tokenId",
          "type": "uint256"
        }
      ],
      "name": "tokenURI",
      "outputs": [
        {
          "internalType": "string",
          "name": "",
          "type": "string"
        }
      ],
      "stateMutability": "view",
      "type": "function"
    },
    {
      "inputs": [
        {
          "internalType": "address",
          "name": "newOwner",
          "type": "address"
        }
      ],
      "name": "transferOwnership",
      "outputs": [],
      "stateMutability": "nonpayable",
      "type": "function"
    },
    {
      "inputs": [
        {
          "internalType": "uint256",
          "name": "_tokenId",
          "type": "uint256"
        }
      ],
      "name": "unequip",
      "outputs": [],
      "stateMutability": "nonpayable",
      "type": "function"
    },
    {
      "inputs": [
        {
          "internalType": "address",
          "name": "newImplementation",
          "type": "address"
        }
      ],
      "name": "upgradeTo",
      "outputs": [],
      "stateMutability": "nonpayable",
      "type": "function"
    },
    {
      "inputs": [
        {
          "internalType": "address",
          "name": "newImplementation",
          "type": "address"
        },
        {
          "internalType": "bytes",
          "name": "data",
          "type": "bytes"
        }
      ],
      "name": "upgradeToAndCall",
      "outputs": [],
      "stateMutability": "payable",
      "type": "function"
    }
  ],
  "bytecode": "0x60a0604052306080523480156200001557600080fd5b506200002062000026565b620000e8565b600054610100900460ff1615620000935760405162461bcd60e51b815260206004820152602760248201527f496e697469616c697a61626c653a20636f6e747261637420697320696e697469604482015266616c697a696e6760c81b606482015260840160405180910390fd5b60005460ff9081161015620000e6576000805460ff191660ff9081179091556040519081527f7f26b83ff96e1f2b6a682f133852f6798a09c465da95921460cefb38474024989060200160405180910390a15b565b60805161373162000120600039600081816106d60152818161071601528181610bb401528181610bf40152610c8701526137316000f3fe6080604052600436106101c25760003560e01c80638da5cb5b116100f7578063c018411211610095578063d6d0faee11610064578063d6d0faee14610500578063e499250614610520578063ec64948e14610540578063f2fde38b1461056057600080fd5b8063c018411214610475578063c58a4ff414610495578063c87b56dd146104c0578063d179e3d0146104e057600080fd5b8063a3947803116100d1578063a3947803146103f5578063a8cf868314610415578063bd6645e414610435578063bdbdbcbf1461045557600080fd5b80638da5cb5b146103a257806395d89b41146103c0578063a32c9c7a146103d557600080fd5b806352d1902d1161016457806370a082311161013e57806370a082311461032d578063715018a61461034d5780637c402f8d1461036257806380956c7e1461038257600080fd5b806352d1902d146102c15780636352211e146102d6578063635ad9931461030e57600080fd5b80633659cfe6116101a05780633659cfe61461023e578063445a62b9146102605780634a086b53146102805780634f1ef286146102ae57600080fd5b806301ffc9a7146101c757806306fdde03146101fc5780630f4d9b011461021e575b600080fd5b3480156101d357600080fd5b506101e76101e2366004612ad3565b610580565b60405190151581526020015b60405180910390f35b34801561020857600080fd5b506102116105d2565b6040516101f39190612b4d565b34801561022a57600080fd5b506101e7610239366004612b60565b610665565b34801561024a57600080fd5b5061025e610259366004612b8e565b6106cc565b005b34801561026c57600080fd5b5061025e61027b366004612bec565b6107ab565b34801561028c57600080fd5b506102a061029b366004612c7b565b610a42565b6040519081526020016101f3565b61025e6102bc366004612d46565b610baa565b3480156102cd57600080fd5b506102a0610c7a565b3480156102e257600080fd5b506102f66102f1366004612b60565b610d2d565b6040516001600160a01b0390911681526020016101f3565b34801561031a57600080fd5b50610135546001600160a01b03166102f6565b34801561033957600080fd5b506102a0610348366004612b8e565b610d82565b34801561035957600080fd5b5061025e610e0a565b34801561036e57600080fd5b5061025e61037d366004612e09565b610e1e565b34801561038e57600080fd5b5061025e61039d366004612e48565b610fbb565b3480156103ae57600080fd5b5060c9546001600160a01b03166102f6565b3480156103cc57600080fd5b5061021161114e565b3480156103e157600080fd5b5061025e6103f0366004612e6a565b61115e565b34801561040157600080fd5b506102a0610410366004612f03565b611387565b34801561042157600080fd5b506102a0610430366004612f85565b6114e9565b34801561044157600080fd5b506102a0610450366004612fd9565b611520565b34801561046157600080fd5b5061025e610470366004613034565b6115b5565b34801561048157600080fd5b5061025e610490366004612b8e565b611658565b3480156104a157600080fd5b50604080518082019091526002815261313160f01b6020820152610211565b3480156104cc57600080fd5b506102116104db366004612b60565b611683565b3480156104ec57600080fd5b5061025e6104fb366004612b60565b61178a565b34801561050c57600080fd5b5061025e61051b366004613075565b611831565b34801561052c57600080fd5b506102a061053b366004613134565b611a10565b34801561054c57600080fd5b506102a061055b366004612f03565b611a80565b34801561056c57600080fd5b5061025e61057b366004612b8e565b611bc5565b60006001600160e01b03198216635b5e139f60e01b14806105b157506001600160e01b031982166346bdd63960e11b145b806105cc57506301ffc9a760e01b6001600160e01b03198316145b92915050565b606061013080546105e290613198565b80601f016020809104026020016040519081016040528092919081815260200182805461060e90613198565b801561065b5780601f106106305761010080835404028352916020019161065b565b820191906000526020600020905b81548152906001019060200180831161063e57829003601f168201915b5050505050905090565b6000818152610132602052604081205482906001600160a01b03166106a55760405162461bcd60e51b815260040161069c906131cc565b60405180910390fd5b600883901c60009081526101376020526040902054600160ff85161b161591505b50919050565b6001600160a01b037f00000000000000000000000000000000000000000000000000000000000000001630036107145760405162461bcd60e51b815260040161069c90613201565b7f00000000000000000000000000000000000000000000000000000000000000006001600160a01b031661075d6000805160206136b5833981519152546001600160a01b031690565b6001600160a01b0316146107835760405162461bcd60e51b815260040161069c9061324d565b61078c81611c3b565b604080516000808252602082019092526107a891839190611c43565b50565b6101355460405163b2a0cb6b60e01b815260048101839052829133916001600160a01b039091169063b2a0cb6b90602401602060405180830381865afa1580156107f9573d6000803e3d6000fd5b505050506040513d601f19601f8201168201806040525081019061081d9190613299565b6001600160a01b0316146108435760405162461bcd60e51b815260040161069c906132b6565b61013554604051637e07102760e11b81526001600160a01b039091169063fc0e204e906108769087908790600401613316565b602060405180830381865afa158015610893573d6000803e3d6000fd5b505050506040513d601f19601f820116820180604052508101906108b7919061332a565b156109105760405162461bcd60e51b815260206004820152602360248201527f637265617465537065633a207370656320616c726561647920726567697374656044820152621c995960ea1b606482015260840161069c565b6101355460405163addd190760e01b81526001600160a01b039091169063addd1907906109459087908790879060040161334c565b600060405180830381600087803b15801561095f57600080fd5b505af1158015610973573d6000803e3d6000fd5b5050505061013560009054906101000a90046001600160a01b03166001600160a01b03166334f876626040518163ffffffff1660e01b8152600401602060405180830381865afa1580156109cb573d6000803e3d6000fd5b505050506040513d601f19601f820116820180604052508101906109ef9190613299565b6001600160a01b031682336001600160a01b03167f68c7f8503283c455a4445b54a7d5c40656c8cae5cca0583c6d4be836984787008787604051610a34929190613316565b60405180910390a450505050565b6000610a5589338a8a8a8a8a8a8a611db3565b61013554604051633664a8e960e01b81526000916001600160a01b031690633664a8e990610a89908c908c90600401613316565b602060405180830381865afa158015610aa6573d6000803e3d6000fd5b505050506040513d601f19601f82011682018060405250810190610aca9190613370565b6101355460405163b2a0cb6b60e01b8152600481018390529192506001600160a01b038c81169291169063b2a0cb6b90602401602060405180830381865afa158015610b1a573d6000803e3d6000fd5b505050506040513d601f19601f82011682018060405250810190610b3e9190613299565b6001600160a01b031614610b905760405162461bcd60e51b81526020600482015260196024820152783a30b5b29d103ab730baba3437b934bd32b21034b9b9bab2b960391b604482015260640161069c565b610b9c338a8a84611f40565b9a9950505050505050505050565b6001600160a01b037f0000000000000000000000000000000000000000000000000000000000000000163003610bf25760405162461bcd60e51b815260040161069c90613201565b7f00000000000000000000000000000000000000000000000000000000000000006001600160a01b0316610c3b6000805160206136b5833981519152546001600160a01b031690565b6001600160a01b031614610c615760405162461bcd60e51b815260040161069c9061324d565b610c6a82611c3b565b610c7682826001611c43565b5050565b6000306001600160a01b037f00000000000000000000000000000000000000000000000000000000000000001614610d1a5760405162461bcd60e51b815260206004820152603860248201527f555550535570677261646561626c653a206d757374206e6f742062652063616c60448201527f6c6564207468726f7567682064656c656761746563616c6c0000000000000000606482015260840161069c565b506000805160206136b583398151915290565b6000818152610132602052604081205482906001600160a01b0316610d645760405162461bcd60e51b815260040161069c906131cc565b5050600090815261013260205260409020546001600160a01b031690565b60006001600160a01b038216610ded5760405162461bcd60e51b815260206004820152602a60248201527f62616c616e63654f663a2061646472657373283029206973206e6f742061207660448201526930b634b21037bbb732b960b11b606482015260840161069c565b506001600160a01b03166000908152610134602052604090205490565b610e12612110565b610e1c600061216a565b565b6000828152610132602052604090205482906001600160a01b0316610e555760405162461bcd60e51b815260040161069c906131cc565b6101355460405163b2a0cb6b60e01b815260048101869052859133916001600160a01b039091169063b2a0cb6b90602401602060405180830381865afa158015610ea3573d6000803e3d6000fd5b505050506040513d601f19601f82011682018060405250810190610ec79190613299565b6001600160a01b031614610eed5760405162461bcd60e51b815260040161069c906132b6565b600884901c60009081526101376020526040902054600160ff86161b1615610f625760405162461bcd60e51b815260206004820152602260248201527f7265766f6b6542616467653a20626164676520616c7265616479207265766f6b604482015261195960f21b606482015260840161069c565b600884901c6000908152610137602052604090208054600160ff87161b17905560405160ff841690339086907ffa784c48260e8db512de5f055a2f29eced211a7b3bd6338058b095ada7354cee90600090a45050505050565b6000818152610132602052604090205481906001600160a01b0316610ff25760405162461bcd60e51b815260040161069c906131cc565b6101355460405163b2a0cb6b60e01b815260048101859052849133916001600160a01b039091169063b2a0cb6b90602401602060405180830381865afa158015611040573d6000803e3d6000fd5b505050506040513d601f19601f820116820180604052508101906110649190613299565b6001600160a01b03161461108a5760405162461bcd60e51b815260040161069c906132b6565b600883901c60009081526101376020526040902054600160ff85161b166110fd5760405162461bcd60e51b815260206004820152602160248201527f7265696e737461746542616467653a206261646765206e6f74207265766f6b656044820152601960fa1b606482015260840161069c565b600883901c600090815261013760205260408082208054600160ff88161b1916905551339185917f7f8cf9ecf2a5225948f8a1601709cedc8471c52ee75a8174c9845c29c99ed9a29190a350505050565b606061013180546105e290613198565b8481146111cb5760405162461bcd60e51b815260206004820152603560248201527f67697665546f4d616e793a20726563697069656e747320616e64207369676e616044820152740e8eae4cae640d8cadccee8d040dad2e6dac2e8c6d605b1b606482015260840161069c565b61013554604051633664a8e960e01b81526000916001600160a01b031690633664a8e9906111ff9088908890600401613316565b602060405180830381865afa15801561121c573d6000803e3d6000fd5b505050506040513d601f19601f820116820180604052508101906112409190613370565b6101355460405163b2a0cb6b60e01b81526004810183905291925033916001600160a01b039091169063b2a0cb6b90602401602060405180830381865afa15801561128f573d6000803e3d6000fd5b505050506040513d601f19601f820116820180604052508101906112b39190613299565b6001600160a01b0316146113095760405162461bcd60e51b815260206004820152601860248201527f67697665546f4d616e793a20756e617574686f72697a65640000000000000000604482015260640161069c565b60005b8681101561137d5761136a88888381811061132957611329613389565b905060200201602081019061133e9190612b8e565b878787878681811061135257611352613389565b9050602002810190611364919061339f565b876121bc565b5080611375816133fb565b91505061130c565b5050505050505050565b60006113973387878787876121d8565b61013554604051633664a8e960e01b81526000916001600160a01b031690633664a8e9906113cb9089908990600401613316565b602060405180830381865afa1580156113e8573d6000803e3d6000fd5b505050506040513d601f19601f8201168201806040525081019061140c9190613370565b6101355460405163b2a0cb6b60e01b8152600481018390529192506001600160a01b038981169291169063b2a0cb6b90602401602060405180830381865afa15801561145c573d6000803e3d6000fd5b505050506040513d601f19601f820116820180604052508101906114809190613299565b6001600160a01b0316146114d25760405162461bcd60e51b81526020600482015260196024820152783a30b5b29d103ab730baba3437b934bd32b21034b9b9bab2b960391b604482015260640161069c565b6114de33878784611f40565b979650505050505050565b600083838360405160200161150093929190613414565b6040516020818303038152906040528051906020012090505b9392505050565b60006115aa7f6d0d990916a9f9c9e0896e59ce7f5ddddff333d0c8772438ce004fa7719b164b868686604051611557929190613439565b60405190819003812061158f93929187906020019384526001600160a01b039290921660208401526040830152606082015260800190565b60405160208183030381529060405280519060200120612286565b90505b949350505050565b6115bd612110565b806116195760405162461bcd60e51b815260206004820152602660248201527f726566726573684d657461646174613a206e6f207370656320757269732070726044820152651bdd9a59195960d21b606482015260840161069c565b7f2231d988b1a75dccab13dee3564b71a551900e822e94177a96f19561890c0fd582823360405161164c93929190613449565b60405180910390a15050565b611660612110565b61013580546001600160a01b0319166001600160a01b0392909216919091179055565b600081815261013260205260409020546060906001600160a01b03166116eb5760405162461bcd60e51b815260206004820152601d60248201527f746f6b656e5552493a20746f6b656e20646f65736e2774206578697374000000604482015260640161069c565b600082815261013360205260409020805461170590613198565b80601f016020809104026020016040519081016040528092919081815260200182805461173190613198565b801561177e5780601f106117535761010080835404028352916020019161177e565b820191906000526020600020905b81548152906001019060200180831161176157829003601f168201915b50505050509050919050565b6000818152610132602052604090205481906001600160a01b03166117c15760405162461bcd60e51b815260040161069c906131cc565b600082815261013260205260409020546001600160a01b031633146118285760405162461bcd60e51b815260206004820152601d60248201527f756e65717569703a2073656e646572206d757374206265206f776e6572000000604482015260640161069c565b610c76826122d4565b600054610100900460ff16158080156118515750600054600160ff909116105b8061186b5750303b15801561186b575060005460ff166001145b6118ce5760405162461bcd60e51b815260206004820152602e60248201527f496e697469616c697a61626c653a20636f6e747261637420697320616c72656160448201526d191e481a5b9a5d1a585b1a5e995960921b606482015260840161069c565b6000805460ff1916600117905580156118f1576000805461ff0019166101001790555b6101306118ff898b83613538565b5061013161190e878983613538565b5061013580546001600160a01b0319166001600160a01b03841617905561193361237f565b61193b6123a6565b6119ae89898080601f01602080910402602001604051908101604052809392919081815260200183838082843760009201919091525050604080516020601f8b0181900481028201810190925289815292508991508890819084018382808284376000920191909152506123d592505050565b6119b661237f565b6119bf83611bc5565b8015611a05576000805461ff0019169055604051600181527f7f26b83ff96e1f2b6a682f133852f6798a09c465da95921460cefb38474024989060200160405180910390a15b505050505050505050565b60006115aa7fe76a195fbe43f0eaa611595069f780493db2202a1cc4b2d7d44b47069812998a86868686604051611a48929190613439565b60405190819003812061158f949392916020019384526001600160a01b03928316602085015291166040830152606082015260800190565b61013554604051633664a8e960e01b815260009182916001600160a01b0390911690633664a8e990611ab89089908990600401613316565b602060405180830381865afa158015611ad5573d6000803e3d6000fd5b505050506040513d601f19601f82011682018060405250810190611af99190613370565b6101355460405163b2a0cb6b60e01b81526004810183905291925033916001600160a01b039091169063b2a0cb6b90602401602060405180830381865afa158015611b48573d6000803e3d6000fd5b505050506040513d601f19601f82011682018060405250810190611b6c9190613299565b6001600160a01b031614611bb75760405162461bcd60e51b815260206004820152601260248201527119da5d994e881d5b985d5d1a1bdc9a5e995960721b604482015260640161069c565b6114de8787878787866121bc565b611bcd612110565b6001600160a01b038116611c325760405162461bcd60e51b815260206004820152602660248201527f4f776e61626c653a206e6577206f776e657220697320746865207a65726f206160448201526564647265737360d01b606482015260840161069c565b6107a88161216a565b6107a8612110565b7f4910fdfa16fed3260ed0e7147f7cc6da11a60208b5b9406d12a635614ffd91435460ff1615611c7b57611c7683612406565b505050565b826001600160a01b03166352d1902d6040518163ffffffff1660e01b8152600401602060405180830381865afa925050508015611cd5575060408051601f3d908101601f19168201909252611cd291810190613370565b60015b611d385760405162461bcd60e51b815260206004820152602e60248201527f45524331393637557067726164653a206e657720696d706c656d656e7461746960448201526d6f6e206973206e6f74205555505360901b606482015260840161069c565b6000805160206136b58339815191528114611da75760405162461bcd60e51b815260206004820152602960248201527f45524331393637557067726164653a20756e737570706f727465642070726f786044820152681a58589b195555525160ba1b606482015260840161069c565b50611c768383836124a2565b611dff89611dc38b8a8a88611520565b87878080601f0160208091040260200160405190810160405280939291908181526020018383808284376000920191909152506124cd92505050565b611e5f5760405162461bcd60e51b815260206004820152602b60248201527f73616665436865636b4d65726b6c6541677265656d656e743a20696e76616c6960448201526a64207369676e617475726560a81b606482015260840161069c565b6040516bffffffffffffffffffffffff1960608a901b166020820152600090603401604051602081830303815290604052805190602001209050611ed983838080602002602001604051908101604052809392919081815260200183836020028082843760009201919091525088925085915061260f9050565b611f345760405162461bcd60e51b815260206004820152602660248201527f73616665436865636b4d65726b6c6541677265656d656e743a20696e76616c6960448201526532103632b0b360d11b606482015260840161069c565b50505050505050505050565b600081600003611f925760405162461bcd60e51b815260206004820152601c60248201527f6d696e743a2073706563206973206e6f74207265676973746572656400000000604482015260640161069c565b6000611f9f8686866114e9565b600081815261013260205260409020549091506001600160a01b031615611fff5760405162461bcd60e51b81526020600482015260146024820152736d696e743a20746f6b656e49442065786973747360601b604482015260640161069c565b6001600160a01b038616600090815261013460205260408120805491612024836133fb565b909155505060008181526101326020908152604080832080546001600160a01b0319166001600160a01b038b161790556101339091529020612067858783613538565b5060405181906001600160a01b038816906000907fddf252ad1be2c89b69c2b068fc378daa952ba7f163c4a11628f55a4df523b3ef908290a46101355460405163fb74926160e01b815260048101839052602481018590526001600160a01b039091169063fb74926190604401600060405180830381600087803b1580156120ee57600080fd5b505af1158015612102573d6000803e3d6000fd5b509298975050505050505050565b60c9546001600160a01b03163314610e1c5760405162461bcd60e51b815260206004820181905260248201527f4f776e61626c653a2063616c6c6572206973206e6f7420746865206f776e6572604482015260640161069c565b60c980546001600160a01b038381166001600160a01b0319831681179093556040519116919082907f8be0079c531659141344cd1fd0a4f28419497f9722a3daafe3b4186f6b6457e090600090a35050565b60006121cc3388888888886121d8565b6114de87878785611f40565b612224856121e888888888611a10565b84848080601f0160208091040260200160405190810160405280939291908181526020018383808284376000920191909152506124cd92505050565b61227e5760405162461bcd60e51b815260206004820152602560248201527f73616665436865636b41677265656d656e743a20696e76616c6964207369676e604482015264617475726560d81b606482015260840161069c565b505050505050565b60006105cc612293612625565b8360405161190160f01b6020820152602281018390526042810182905260009060620160405160208183030381529060405280519060200120905092915050565b600081815261013260209081526040808320546001600160a01b031680845261013490925282208054919260019261230d9084906135f8565b909155505060008281526101326020908152604080832080546001600160a01b0319169055610133909152812061234391612a85565b60405182906000906001600160a01b038416907fddf252ad1be2c89b69c2b068fc378daa952ba7f163c4a11628f55a4df523b3ef908390a45050565b600054610100900460ff16610e1c5760405162461bcd60e51b815260040161069c9061360b565b600054610100900460ff166123cd5760405162461bcd60e51b815260040161069c9061360b565b610e1c612661565b600054610100900460ff166123fc5760405162461bcd60e51b815260040161069c9061360b565b610c768282612691565b6001600160a01b0381163b6124735760405162461bcd60e51b815260206004820152602d60248201527f455243313936373a206e657720696d706c656d656e746174696f6e206973206e60448201526c1bdd08184818dbdb9d1c9858dd609a1b606482015260840161069c565b6000805160206136b583398151915280546001600160a01b0319166001600160a01b0392909216919091179055565b6124ab836126d2565b6000825111806124b85750805b15611c76576124c78383612712565b50505050565b60008060006124dc8585612806565b909250905060008160048111156124f5576124f5613656565b1480156125135750856001600160a01b0316826001600160a01b0316145b1561252357600192505050611519565b600080876001600160a01b0316631626ba7e60e01b888860405160240161254b92919061366c565b60408051601f198184030181529181526020820180516001600160e01b03166001600160e01b03199094169390931790925290516125899190613685565b600060405180830381855afa9150503d80600081146125c4576040519150601f19603f3d011682016040523d82523d6000602084013e6125c9565b606091505b50915091508180156125dc575080516020145b801561260357508051630b135d3f60e11b906126019083016020908101908401613370565b145b98975050505050505050565b60008261261c8584612874565b14949350505050565b600061265c7f8b73c3c69bb8fe3d512ecc4cf759cc79239f7b179b0ffacaa9a75d522b39400f61265460fb5490565b60fc546128c1565b905090565b600054610100900460ff166126885760405162461bcd60e51b815260040161069c9061360b565b610e1c3361216a565b600054610100900460ff166126b85760405162461bcd60e51b815260040161069c9061360b565b81516020928301208151919092012060fb9190915560fc55565b6126db81612406565b6040516001600160a01b038216907fbc7cd75a20ee27fd9adebab32041f755214dbc6bffa90cc0225b39da2e5c2d3b90600090a250565b60606001600160a01b0383163b61277a5760405162461bcd60e51b815260206004820152602660248201527f416464726573733a2064656c65676174652063616c6c20746f206e6f6e2d636f6044820152651b9d1c9858dd60d21b606482015260840161069c565b600080846001600160a01b0316846040516127959190613685565b600060405180830381855af49150503d80600081146127d0576040519150601f19603f3d011682016040523d82523d6000602084013e6127d5565b606091505b50915091506127fd82826040518060600160405280602781526020016136d5602791396128f0565b95945050505050565b600080825160410361283c5760208301516040840151606085015160001a61283087828585612909565b9450945050505061286d565b8251604003612865576020830151604084015161285a8683836129f6565b93509350505061286d565b506000905060025b9250929050565b600081815b84518110156128b9576128a58286838151811061289857612898613389565b6020026020010151612a2f565b9150806128b1816133fb565b915050612879565b509392505050565b6040805160208101859052908101839052606081018290524660808201523060a082015260009060c001611500565b606083156128ff575081611519565b6115198383612a5b565b6000807f7fffffffffffffffffffffffffffffff5d576e7357a4501ddfe92f46681b20a083111561294057506000905060036129ed565b8460ff16601b1415801561295857508460ff16601c14155b1561296957506000905060046129ed565b6040805160008082526020820180845289905260ff881692820192909252606081018690526080810185905260019060a0016020604051602081039080840390855afa1580156129bd573d6000803e3d6000fd5b5050604051601f1901519150506001600160a01b0381166129e6576000600192509250506129ed565b9150600090505b94509492505050565b6000806001600160ff1b03831681612a1360ff86901c601b6136a1565b9050612a2187828885612909565b935093505050935093915050565b6000818310612a4b576000828152602084905260409020611519565b5060009182526020526040902090565b815115612a6b5781518083602001fd5b8060405162461bcd60e51b815260040161069c9190612b4d565b508054612a9190613198565b6000825580601f10612aa1575050565b601f0160209004906000526020600020908101906107a891905b80821115612acf5760008155600101612abb565b5090565b600060208284031215612ae557600080fd5b81356001600160e01b03198116811461151957600080fd5b60005b83811015612b18578181015183820152602001612b00565b50506000910152565b60008151808452612b39816020860160208601612afd565b601f01601f19169290920160200192915050565b6020815260006115196020830184612b21565b600060208284031215612b7257600080fd5b5035919050565b6001600160a01b03811681146107a857600080fd5b600060208284031215612ba057600080fd5b813561151981612b79565b60008083601f840112612bbd57600080fd5b5081356001600160401b03811115612bd457600080fd5b60208301915083602082850101111561286d57600080fd5b600080600060408486031215612c0157600080fd5b83356001600160401b03811115612c1757600080fd5b612c2386828701612bab565b909790965060209590950135949350505050565b60008083601f840112612c4957600080fd5b5081356001600160401b03811115612c6057600080fd5b6020830191508360208260051b850101111561286d57600080fd5b60008060008060008060008060a0898b031215612c9757600080fd5b8835612ca281612b79565b975060208901356001600160401b0380821115612cbe57600080fd5b612cca8c838d01612bab565b909950975060408b0135915080821115612ce357600080fd5b612cef8c838d01612bab565b909750955060608b0135945060808b0135915080821115612d0f57600080fd5b50612d1c8b828c01612c37565b999c989b5096995094979396929594505050565b634e487b7160e01b600052604160045260246000fd5b60008060408385031215612d5957600080fd5b8235612d6481612b79565b915060208301356001600160401b0380821115612d8057600080fd5b818501915085601f830112612d9457600080fd5b813581811115612da657612da6612d30565b604051601f8201601f19908116603f01168101908382118183101715612dce57612dce612d30565b81604052828152886020848701011115612de757600080fd5b8260208601602083013760006020848301015280955050505050509250929050565b600080600060608486031215612e1e57600080fd5b8335925060208401359150604084013560ff81168114612e3d57600080fd5b809150509250925092565b60008060408385031215612e5b57600080fd5b50508035926020909101359150565b60008060008060008060608789031215612e8357600080fd5b86356001600160401b0380821115612e9a57600080fd5b612ea68a838b01612c37565b90985096506020890135915080821115612ebf57600080fd5b612ecb8a838b01612bab565b90965094506040890135915080821115612ee457600080fd5b50612ef189828a01612c37565b979a9699509497509295939492505050565b600080600080600060608688031215612f1b57600080fd5b8535612f2681612b79565b945060208601356001600160401b0380821115612f4257600080fd5b612f4e89838a01612bab565b90965094506040880135915080821115612f6757600080fd5b50612f7488828901612bab565b969995985093965092949392505050565b600080600060408486031215612f9a57600080fd5b8335612fa581612b79565b925060208401356001600160401b03811115612fc057600080fd5b612fcc86828701612bab565b9497909650939450505050565b60008060008060608587031215612fef57600080fd5b8435612ffa81612b79565b935060208501356001600160401b0381111561301557600080fd5b61302187828801612bab565b9598909750949560400135949350505050565b6000806020838503121561304757600080fd5b82356001600160401b0381111561305d57600080fd5b61306985828601612c37565b90969095509350505050565b60008060008060008060008060a0898b03121561309157600080fd5b88356001600160401b03808211156130a857600080fd5b6130b48c838d01612bab565b909a50985060208b01359150808211156130cd57600080fd5b6130d98c838d01612bab565b909850965060408b01359150808211156130f257600080fd5b506130ff8b828c01612bab565b909550935050606089013561311381612b79565b9150608089013561312381612b79565b809150509295985092959890939650565b6000806000806060858703121561314a57600080fd5b843561315581612b79565b9350602085013561316581612b79565b925060408501356001600160401b0381111561318057600080fd5b61318c87828801612bab565b95989497509550505050565b600181811c908216806131ac57607f821691505b6020821081036106c657634e487b7160e01b600052602260045260246000fd5b6020808252818101527f746f6b656e4578697374733a20746f6b656e20646f65736e2774206578697374604082015260600190565b6020808252602c908201527f46756e6374696f6e206d7573742062652063616c6c6564207468726f7567682060408201526b19195b1959d85d1958d85b1b60a21b606082015260800190565b6020808252602c908201527f46756e6374696f6e206d7573742062652063616c6c6564207468726f7567682060408201526b6163746976652070726f787960a01b606082015260800190565b6000602082840312156132ab57600080fd5b815161151981612b79565b6020808252601b908201527f6f6e6c79526166744f776e65723a20756e617574686f72697a65640000000000604082015260600190565b81835281816020850137506000828201602090810191909152601f909101601f19169091010190565b6020815260006115ad6020830184866132ed565b60006020828403121561333c57600080fd5b8151801515811461151957600080fd5b6040815260006133606040830185876132ed565b9050826020830152949350505050565b60006020828403121561338257600080fd5b5051919050565b634e487b7160e01b600052603260045260246000fd5b6000808335601e198436030181126133b657600080fd5b8301803591506001600160401b038211156133d057600080fd5b60200191503681900382131561286d57600080fd5b634e487b7160e01b600052601160045260246000fd5b60006001820161340d5761340d6133e5565b5060010190565b6001600160a01b03841681526040602082018190526000906115aa90830184866132ed565b8183823760009101908152919050565b6040808252810183905260006060600585901b8301810190830186835b878110156134d957858403605f190183528135368a9003601e1901811261348c57600080fd5b890160208181019135906001600160401b038211156134aa57600080fd5b8136038313156134b957600080fd5b6134c48783856132ed565b96509485019493909301925050600101613466565b5050506001600160a01b038416602084015290506115ad565b601f821115611c7657600081815260208120601f850160051c810160208610156135195750805b601f850160051c820191505b8181101561227e57828155600101613525565b6001600160401b0383111561354f5761354f612d30565b6135638361355d8354613198565b836134f2565b6000601f841160018114613597576000851561357f5750838201355b600019600387901b1c1916600186901b1783556135f1565b600083815260209020601f19861690835b828110156135c857868501358255602094850194600190920191016135a8565b50868210156135e55760001960f88860031b161c19848701351681555b505060018560011b0183555b5050505050565b818103818111156105cc576105cc6133e5565b6020808252602b908201527f496e697469616c697a61626c653a20636f6e7472616374206973206e6f74206960408201526a6e697469616c697a696e6760a81b606082015260800190565b634e487b7160e01b600052602160045260246000fd5b8281526040602082015260006115ad6040830184612b21565b60008251613697818460208701612afd565b9190910192915050565b808201808211156105cc576105cc6133e556fe360894a13ba1a3210667c828492db98dca3e2076cc3735a920a3ca505d382bbc416464726573733a206c6f772d6c6576656c2064656c65676174652063616c6c206661696c6564a26469706673582212201eea80c224eaa476077ef2718d2d2f457091fd5a5a1ab5632e6c48643895fcc764736f6c63430008100033",
  "linkReferences": {},
  "deployedLinkReferences": {}
}