{
  "_format": "hh-sol-artifact-1",
  "contractName": "Raft",
  "sourceName": "src/Raft.sol",
  "abi": [
    {
      "inputs": [],
      "stateMutability": "nonpayable",
      "type": "constructor"
    },
    {
      "anonymous": false,
      "inputs": [
        {
          "indexed": false,
          "internalType": "address",
          "name": "previousAdmin",
          "type": "address"
        },
        {
          "indexed": false,
          "internalType": "address",
          "name": "newAdmin",
          "type": "address"
        }
      ],
      "name": "AdminChanged",
      "type": "event"
    },
    {
      "anonymous": false,
      "inputs": [
        {
          "indexed": true,
          "internalType": "address",
          "name": "owner",
          "type": "address"
        },
        {
          "indexed": true,
          "internalType": "address",
          "name": "approved",
          "type": "address"
        },
        {
          "indexed": true,
          "internalType": "uint256",
          "name": "tokenId",
          "type": "uint256"
        }
      ],
      "name": "Approval",
      "type": "event"
    },
    {
      "anonymous": false,
      "inputs": [
        {
          "indexed": true,
          "internalType": "address",
          "name": "owner",
          "type": "address"
        },
        {
          "indexed": true,
          "internalType": "address",
          "name": "operator",
          "type": "address"
        },
        {
          "indexed": false,
          "internalType": "bool",
          "name": "approved",
          "type": "bool"
        }
      ],
      "name": "ApprovalForAll",
      "type": "event"
    },
    {
      "anonymous": false,
      "inputs": [
        {
          "indexed": true,
          "internalType": "address",
          "name": "beacon",
          "type": "address"
        }
      ],
      "name": "BeaconUpgraded",
      "type": "event"
    },
    {
      "anonymous": false,
      "inputs": [
        {
          "indexed": false,
          "internalType": "uint8",
          "name": "version",
          "type": "uint8"
        }
      ],
      "name": "Initialized",
      "type": "event"
    },
    {
      "anonymous": false,
      "inputs": [
        {
          "indexed": true,
          "internalType": "uint256",
          "name": "tokenId",
          "type": "uint256"
        }
      ],
      "name": "MetadataUpdate",
      "type": "event"
    },
    {
      "anonymous": false,
      "inputs": [
        {
          "indexed": true,
          "internalType": "address",
          "name": "previousOwner",
          "type": "address"
        },
        {
          "indexed": true,
          "internalType": "address",
          "name": "newOwner",
          "type": "address"
        }
      ],
      "name": "OwnershipTransferred",
      "type": "event"
    },
    {
      "anonymous": false,
      "inputs": [
        {
          "indexed": false,
          "internalType": "address",
          "name": "account",
          "type": "address"
        }
      ],
      "name": "Paused",
      "type": "event"
    },
    {
      "anonymous": false,
      "inputs": [
        {
          "indexed": true,
          "internalType": "address",
          "name": "from",
          "type": "address"
        },
        {
          "indexed": true,
          "internalType": "address",
          "name": "to",
          "type": "address"
        },
        {
          "indexed": true,
          "internalType": "uint256",
          "name": "tokenId",
          "type": "uint256"
        }
      ],
      "name": "Transfer",
      "type": "event"
    },
    {
      "anonymous": false,
      "inputs": [
        {
          "indexed": false,
          "internalType": "address",
          "name": "account",
          "type": "address"
        }
      ],
      "name": "Unpaused",
      "type": "event"
    },
    {
      "anonymous": false,
      "inputs": [
        {
          "indexed": true,
          "internalType": "address",
          "name": "implementation",
          "type": "address"
        }
      ],
      "name": "Upgraded",
      "type": "event"
    },
    {
      "inputs": [
        {
          "internalType": "address",
          "name": "to",
          "type": "address"
        },
        {
          "internalType": "uint256",
          "name": "tokenId",
          "type": "uint256"
        }
      ],
      "name": "approve",
      "outputs": [],
      "stateMutability": "nonpayable",
      "type": "function"
    },
    {
      "inputs": [
        {
          "internalType": "address",
          "name": "owner",
          "type": "address"
        }
      ],
      "name": "balanceOf",
      "outputs": [
        {
          "internalType": "uint256",
          "name": "",
          "type": "uint256"
        }
      ],
      "stateMutability": "view",
      "type": "function"
    },
    {
      "inputs": [
        {
          "internalType": "uint256",
          "name": "tokenId",
          "type": "uint256"
        }
      ],
      "name": "getApproved",
      "outputs": [
        {
          "internalType": "address",
          "name": "",
          "type": "address"
        }
      ],
      "stateMutability": "view",
      "type": "function"
    },
    {
      "inputs": [],
      "name": "getGeorge",
      "outputs": [
        {
          "internalType": "string",
          "name": "",
          "type": "string"
        }
      ],
      "stateMutability": "pure",
      "type": "function"
    },
    {
      "inputs": [
        {
          "internalType": "address",
          "name": "nextOwner",
          "type": "address"
        },
        {
          "internalType": "string",
          "name": "name_",
          "type": "string"
        },
        {
          "internalType": "string",
          "name": "symbol_",
          "type": "string"
        }
      ],
      "name": "initialize",
      "outputs": [],
      "stateMutability": "nonpayable",
      "type": "function"
    },
    {
      "inputs": [
        {
          "internalType": "address",
          "name": "owner",
          "type": "address"
        },
        {
          "internalType": "address",
          "name": "operator",
          "type": "address"
        }
      ],
      "name": "isApprovedForAll",
      "outputs": [
        {
          "internalType": "bool",
          "name": "",
          "type": "bool"
        }
      ],
      "stateMutability": "view",
      "type": "function"
    },
    {
      "inputs": [
        {
          "internalType": "address",
          "name": "recipient",
          "type": "address"
        },
        {
          "internalType": "string",
          "name": "uri",
          "type": "string"
        }
      ],
      "name": "mint",
      "outputs": [
        {
          "internalType": "uint256",
          "name": "",
          "type": "uint256"
        }
      ],
      "stateMutability": "nonpayable",
      "type": "function"
    },
    {
      "inputs": [],
      "name": "name",
      "outputs": [
        {
          "internalType": "string",
          "name": "",
          "type": "string"
        }
      ],
      "stateMutability": "view",
      "type": "function"
    },
    {
      "inputs": [],
      "name": "owner",
      "outputs": [
        {
          "internalType": "address",
          "name": "",
          "type": "address"
        }
      ],
      "stateMutability": "view",
      "type": "function"
    },
    {
      "inputs": [
        {
          "internalType": "uint256",
          "name": "tokenId",
          "type": "uint256"
        }
      ],
      "name": "ownerOf",
      "outputs": [
        {
          "internalType": "address",
          "name": "",
          "type": "address"
        }
      ],
      "stateMutability": "view",
      "type": "function"
    },
    {
      "inputs": [],
      "name": "pause",
      "outputs": [],
      "stateMutability": "nonpayable",
      "type": "function"
    },
    {
      "inputs": [],
      "name": "paused",
      "outputs": [
        {
          "internalType": "bool",
          "name": "",
          "type": "bool"
        }
      ],
      "stateMutability": "view",
      "type": "function"
    },
    {
      "inputs": [],
      "name": "proxiableUUID",
      "outputs": [
        {
          "internalType": "bytes32",
          "name": "",
          "type": "bytes32"
        }
      ],
      "stateMutability": "view",
      "type": "function"
    },
    {
      "inputs": [],
      "name": "renounceOwnership",
      "outputs": [],
      "stateMutability": "nonpayable",
      "type": "function"
    },
    {
      "inputs": [
        {
          "internalType": "address",
          "name": "from",
          "type": "address"
        },
        {
          "internalType": "address",
          "name": "to",
          "type": "address"
        },
        {
          "internalType": "uint256",
          "name": "tokenId",
          "type": "uint256"
        }
      ],
      "name": "safeTransferFrom",
      "outputs": [],
      "stateMutability": "nonpayable",
      "type": "function"
    },
    {
      "inputs": [
        {
          "internalType": "address",
          "name": "from",
          "type": "address"
        },
        {
          "internalType": "address",
          "name": "to",
          "type": "address"
        },
        {
          "internalType": "uint256",
          "name": "tokenId",
          "type": "uint256"
        },
        {
          "internalType": "bytes",
          "name": "data",
          "type": "bytes"
        }
      ],
      "name": "safeTransferFrom",
      "outputs": [],
      "stateMutability": "nonpayable",
      "type": "function"
    },
    {
      "inputs": [
        {
          "internalType": "address",
          "name": "operator",
          "type": "address"
        },
        {
          "internalType": "bool",
          "name": "approved",
          "type": "bool"
        }
      ],
      "name": "setApprovalForAll",
      "outputs": [],
      "stateMutability": "nonpayable",
      "type": "function"
    },
    {
      "inputs": [
        {
          "internalType": "uint256",
          "name": "tokenId",
          "type": "uint256"
        },
        {
          "internalType": "string",
          "name": "uri",
          "type": "string"
        }
      ],
      "name": "setTokenURI",
      "outputs": [],
      "stateMutability": "nonpayable",
      "type": "function"
    },
    {
      "inputs": [
        {
          "internalType": "bytes4",
          "name": "interfaceId",
          "type": "bytes4"
        }
      ],
      "name": "supportsInterface",
      "outputs": [
        {
          "internalType": "bool",
          "name": "",
          "type": "bool"
        }
      ],
      "stateMutability": "view",
      "type": "function"
    },
    {
      "inputs": [],
      "name": "symbol",
      "outputs": [
        {
          "internalType": "string",
          "name": "",
          "type": "string"
        }
      ],
      "stateMutability": "view",
      "type": "function"
    },
    {
      "inputs": [
        {
          "internalType": "uint256",
          "name": "index",
          "type": "uint256"
        }
      ],
      "name": "tokenByIndex",
      "outputs": [
        {
          "internalType": "uint256",
          "name": "",
          "type": "uint256"
        }
      ],
      "stateMutability": "view",
      "type": "function"
    },
    {
      "inputs": [
        {
          "internalType": "address",
          "name": "owner",
          "type": "address"
        },
        {
          "internalType": "uint256",
          "name": "index",
          "type": "uint256"
        }
      ],
      "name": "tokenOfOwnerByIndex",
      "outputs": [
        {
          "internalType": "uint256",
          "name": "",
          "type": "uint256"
        }
      ],
      "stateMutability": "view",
      "type": "function"
    },
    {
      "inputs": [
        {
          "internalType": "uint256",
          "name": "tokenId",
          "type": "uint256"
        }
      ],
      "name": "tokenURI",
      "outputs": [
        {
          "internalType": "string",
          "name": "",
          "type": "string"
        }
      ],
      "stateMutability": "view",
      "type": "function"
    },
    {
      "inputs": [],
      "name": "totalSupply",
      "outputs": [
        {
          "internalType": "uint256",
          "name": "",
          "type": "uint256"
        }
      ],
      "stateMutability": "view",
      "type": "function"
    },
    {
      "inputs": [
        {
          "internalType": "address",
          "name": "from",
          "type": "address"
        },
        {
          "internalType": "address",
          "name": "to",
          "type": "address"
        },
        {
          "internalType": "uint256",
          "name": "tokenId",
          "type": "uint256"
        }
      ],
      "name": "transferFrom",
      "outputs": [],
      "stateMutability": "nonpayable",
      "type": "function"
    },
    {
      "inputs": [
        {
          "internalType": "address",
          "name": "newOwner",
          "type": "address"
        }
      ],
      "name": "transferOwnership",
      "outputs": [],
      "stateMutability": "nonpayable",
      "type": "function"
    },
    {
      "inputs": [],
      "name": "unpause",
      "outputs": [],
      "stateMutability": "nonpayable",
      "type": "function"
    },
    {
      "inputs": [
        {
          "internalType": "address",
          "name": "newImplementation",
          "type": "address"
        }
      ],
      "name": "upgradeTo",
      "outputs": [],
      "stateMutability": "nonpayable",
      "type": "function"
    },
    {
      "inputs": [
        {
          "internalType": "address",
          "name": "newImplementation",
          "type": "address"
        },
        {
          "internalType": "bytes",
          "name": "data",
          "type": "bytes"
        }
      ],
      "name": "upgradeToAndCall",
      "outputs": [],
      "stateMutability": "payable",
      "type": "function"
    }
  ],
  "bytecode": "0x60a0604052306080523480156200001557600080fd5b506200002062000026565b620000e8565b600054610100900460ff1615620000935760405162461bcd60e51b815260206004820152602760248201527f496e697469616c697a61626c653a20636f6e747261637420697320696e697469604482015266616c697a696e6760c81b606482015260840160405180910390fd5b60005460ff9081161015620000e6576000805460ff191660ff9081179091556040519081527f7f26b83ff96e1f2b6a682f133852f6798a09c465da95921460cefb38474024989060200160405180910390a15b565b60805161287162000120600039600081816109310152818161097101528181610a3d01528181610a7d0152610ba301526128716000f3fe6080604052600436106101c25760003560e01c80635c975abb116100f757806395d89b4111610095578063c87b56dd11610064578063c87b56dd146104f1578063d0def52114610511578063e985e9c514610531578063f2fde38b1461057a57600080fd5b806395d89b4114610456578063a22cb4651461046b578063b88d4fde1461048b578063c58a4ff4146104ab57600080fd5b8063715018a6116100d1578063715018a6146103ed5780638456cb59146104025780638da5cb5b14610417578063906571471461043657600080fd5b80635c975abb146103945780636352211e146103ad57806370a08231146103cd57600080fd5b80632f745c591161016457806342842e0e1161013e57806342842e0e1461032c5780634f1ef2861461034c5780634f6ccce71461035f57806352d1902d1461037f57600080fd5b80632f745c59146102d75780633659cfe6146102f75780633f4ba83a1461031757600080fd5b8063095ea7b3116101a0578063095ea7b314610256578063162094c41461027857806318160ddd1461029857806323b872dd146102b757600080fd5b806301ffc9a7146101c757806306fdde03146101fc578063081812fc1461021e575b600080fd5b3480156101d357600080fd5b506101e76101e2366004612090565b61059a565b60405190151581526020015b60405180910390f35b34801561020857600080fd5b506102116105c5565b6040516101f391906120fd565b34801561022a57600080fd5b5061023e610239366004612110565b610657565b6040516001600160a01b0390911681526020016101f3565b34801561026257600080fd5b50610276610271366004612145565b61067e565b005b34801561028457600080fd5b50610276610293366004612212565b610798565b3480156102a457600080fd5b506099545b6040519081526020016101f3565b3480156102c357600080fd5b506102766102d2366004612259565b610860565b3480156102e357600080fd5b506102a96102f2366004612145565b610891565b34801561030357600080fd5b50610276610312366004612295565b610927565b34801561032357600080fd5b50610276610a06565b34801561033857600080fd5b50610276610347366004612259565b610a18565b61027661035a3660046122b0565b610a33565b34801561036b57600080fd5b506102a961037a366004612110565b610b03565b34801561038b57600080fd5b506102a9610b96565b3480156103a057600080fd5b5061015f5460ff166101e7565b3480156103b957600080fd5b5061023e6103c8366004612110565b610c49565b3480156103d957600080fd5b506102a96103e8366004612295565b610ca9565b3480156103f957600080fd5b50610276610d2f565b34801561040e57600080fd5b50610276610d41565b34801561042357600080fd5b5061012d546001600160a01b031661023e565b34801561044257600080fd5b506102766104513660046122e8565b610d51565b34801561046257600080fd5b50610211610e90565b34801561047757600080fd5b5061027661048636600461235c565b610e9f565b34801561049757600080fd5b506102766104a6366004612398565b610eaa565b3480156104b757600080fd5b5060408051808201909152601881527f686572657320746865206c6174657374207570646174652100000000000000006020820152610211565b3480156104fd57600080fd5b5061021161050c366004612110565b610edc565b34801561051d57600080fd5b506102a961052c3660046122b0565b610f7f565b34801561053d57600080fd5b506101e761054c366004612400565b6001600160a01b039182166000908152606a6020908152604080832093909416825291909152205460ff1690565b34801561058657600080fd5b50610276610595366004612295565b6110a1565b60006001600160e01b0319821663780e9d6360e01b14806105bf57506105bf82611117565b92915050565b6060606580546105d490612433565b80601f016020809104026020016040519081016040528092919081815260200182805461060090612433565b801561064d5780601f106106225761010080835404028352916020019161064d565b820191906000526020600020905b81548152906001019060200180831161063057829003601f168201915b5050505050905090565b600061066282611167565b506000908152606960205260409020546001600160a01b031690565b600061068982610c49565b9050806001600160a01b0316836001600160a01b0316036106fb5760405162461bcd60e51b815260206004820152602160248201527f4552433732313a20617070726f76616c20746f2063757272656e74206f776e656044820152603960f91b60648201526084015b60405180910390fd5b336001600160a01b03821614806107175750610717813361054c565b6107895760405162461bcd60e51b815260206004820152603d60248201527f4552433732313a20617070726f76652063616c6c6572206973206e6f7420746f60448201527f6b656e206f776e6572206f7220617070726f76656420666f7220616c6c00000060648201526084016106f2565b61079383836111c6565b505050565b6107a0611234565b6000828152606760205260409020546001600160a01b03166108175760405162461bcd60e51b815260206004820152602a60248201527f5f736574546f6b656e5552493a2055524920736574206f66206e6f6e657869736044820152693a32b73a103a37b5b2b760b11b60648201526084016106f2565b60008281526101926020526040902061083082826124bb565b5060405182907ff8e1a15aba9398e019f0b49df1a4fde98ee17ae345cb5f6b5e2c27f5033e8ce790600090a25050565b61086a338261128f565b6108865760405162461bcd60e51b81526004016106f29061257b565b61079383838361130e565b600061089c83610ca9565b82106108fe5760405162461bcd60e51b815260206004820152602b60248201527f455243373231456e756d657261626c653a206f776e657220696e646578206f7560448201526a74206f6620626f756e647360a81b60648201526084016106f2565b506001600160a01b03919091166000908152609760209081526040808320938352929052205490565b6001600160a01b037f000000000000000000000000000000000000000000000000000000000000000016300361096f5760405162461bcd60e51b81526004016106f2906125c8565b7f00000000000000000000000000000000000000000000000000000000000000006001600160a01b03166109b86000805160206127f5833981519152546001600160a01b031690565b6001600160a01b0316146109de5760405162461bcd60e51b81526004016106f290612614565b6109e7816114c4565b60408051600080825260208201909252610a03918391906114cc565b50565b610a0e611234565b610a16611637565b565b61079383838360405180602001604052806000815250610eaa565b6001600160a01b037f0000000000000000000000000000000000000000000000000000000000000000163003610a7b5760405162461bcd60e51b81526004016106f2906125c8565b7f00000000000000000000000000000000000000000000000000000000000000006001600160a01b0316610ac46000805160206127f5833981519152546001600160a01b031690565b6001600160a01b031614610aea5760405162461bcd60e51b81526004016106f290612614565b610af3826114c4565b610aff828260016114cc565b5050565b6000610b0e60995490565b8210610b715760405162461bcd60e51b815260206004820152602c60248201527f455243373231456e756d657261626c653a20676c6f62616c20696e646578206f60448201526b7574206f6620626f756e647360a01b60648201526084016106f2565b60998281548110610b8457610b84612660565b90600052602060002001549050919050565b6000306001600160a01b037f00000000000000000000000000000000000000000000000000000000000000001614610c365760405162461bcd60e51b815260206004820152603860248201527f555550535570677261646561626c653a206d757374206e6f742062652063616c60448201527f6c6564207468726f7567682064656c656761746563616c6c000000000000000060648201526084016106f2565b506000805160206127f583398151915290565b6000818152606760205260408120546001600160a01b0316806105bf5760405162461bcd60e51b8152602060048201526018602482015277115490cdcc8c4e881a5b9d985b1a59081d1bdad95b88125160421b60448201526064016106f2565b60006001600160a01b038216610d135760405162461bcd60e51b815260206004820152602960248201527f4552433732313a2061646472657373207a65726f206973206e6f7420612076616044820152683634b21037bbb732b960b91b60648201526084016106f2565b506001600160a01b031660009081526068602052604090205490565b610d37611234565b610a16600061168a565b610d49611234565b610a166116dd565b600054610100900460ff1615808015610d715750600054600160ff909116105b80610d8b5750303b158015610d8b575060005460ff166001145b610dee5760405162461bcd60e51b815260206004820152602e60248201527f496e697469616c697a61626c653a20636f6e747261637420697320616c72656160448201526d191e481a5b9a5d1a585b1a5e995960921b60648201526084016106f2565b6000805460ff191660011790558015610e11576000805461ff0019166101001790555b610e1961171b565b610e238383611742565b610e2b61171b565b610e33611773565b610e3c846110a1565b610e446116dd565b8015610e8a576000805461ff0019169055604051600181527f7f26b83ff96e1f2b6a682f133852f6798a09c465da95921460cefb38474024989060200160405180910390a15b50505050565b6060606680546105d490612433565b610aff3383836117a2565b610eb4338361128f565b610ed05760405162461bcd60e51b81526004016106f29061257b565b610e8a84848484611870565b600081815261019260205260409020805460609190610efa90612433565b80601f0160208091040260200160405190810160405280929190818152602001828054610f2690612433565b8015610f735780601f10610f4857610100808354040283529160200191610f73565b820191906000526020600020905b815481529060010190602001808311610f5657829003601f168201915b50505050509050919050565b6000610f9461012d546001600160a01b031690565b6001600160a01b0316336001600160a01b03161480610fb7575061015f5460ff16155b6110035760405162461bcd60e51b815260206004820152601a60248201527f6d696e743a20756e617574686f72697a656420746f206d696e7400000000000060448201526064016106f2565b61101261019180546001019055565b600061101e6101915490565b90506001600160a01b0384166110765760405162461bcd60e51b815260206004820152601b60248201527f63616e6e6f74206d696e7420746f207a65726f2061646472657373000000000060448201526064016106f2565b61108084826118a3565b60008181526101926020526040902061109984826124bb565b509392505050565b6110a9611234565b6001600160a01b03811661110e5760405162461bcd60e51b815260206004820152602660248201527f4f776e61626c653a206e6577206f776e657220697320746865207a65726f206160448201526564647265737360d01b60648201526084016106f2565b610a038161168a565b60006001600160e01b031982166380ac58cd60e01b148061114857506001600160e01b03198216635b5e139f60e01b145b806105bf57506301ffc9a760e01b6001600160e01b03198316146105bf565b6000818152606760205260409020546001600160a01b0316610a035760405162461bcd60e51b8152602060048201526018602482015277115490cdcc8c4e881a5b9d985b1a59081d1bdad95b88125160421b60448201526064016106f2565b600081815260696020526040902080546001600160a01b0319166001600160a01b03841690811790915581906111fb82610c49565b6001600160a01b03167f8c5be1e5ebec7d5bd14f71427d1e84f3dd0314c0f7b2291e5b200ac8c7c3b92560405160405180910390a45050565b61012d546001600160a01b03163314610a165760405162461bcd60e51b815260206004820181905260248201527f4f776e61626c653a2063616c6c6572206973206e6f7420746865206f776e657260448201526064016106f2565b60008061129b83610c49565b9050806001600160a01b0316846001600160a01b031614806112e257506001600160a01b038082166000908152606a602090815260408083209388168352929052205460ff165b806113065750836001600160a01b03166112fb84610657565b6001600160a01b0316145b949350505050565b826001600160a01b031661132182610c49565b6001600160a01b0316146113855760405162461bcd60e51b815260206004820152602560248201527f4552433732313a207472616e736665722066726f6d20696e636f72726563742060448201526437bbb732b960d91b60648201526084016106f2565b6001600160a01b0382166113e75760405162461bcd60e51b8152602060048201526024808201527f4552433732313a207472616e7366657220746f20746865207a65726f206164646044820152637265737360e01b60648201526084016106f2565b6113f28383836119f1565b600081815260696020908152604080832080546001600160a01b03191690556001600160a01b03861683526068909152812080546001929061143590849061268c565b90915550506001600160a01b038216600090815260686020526040812080546001929061146390849061269f565b909155505060008181526067602052604080822080546001600160a01b0319166001600160a01b0386811691821790925591518493918716917fddf252ad1be2c89b69c2b068fc378daa952ba7f163c4a11628f55a4df523b3ef91a4505050565b610a03611234565b7f4910fdfa16fed3260ed0e7147f7cc6da11a60208b5b9406d12a635614ffd91435460ff16156114ff5761079383611aa9565b826001600160a01b03166352d1902d6040518163ffffffff1660e01b8152600401602060405180830381865afa925050508015611559575060408051601f3d908101601f19168201909252611556918101906126b2565b60015b6115bc5760405162461bcd60e51b815260206004820152602e60248201527f45524331393637557067726164653a206e657720696d706c656d656e7461746960448201526d6f6e206973206e6f74205555505360901b60648201526084016106f2565b6000805160206127f5833981519152811461162b5760405162461bcd60e51b815260206004820152602960248201527f45524331393637557067726164653a20756e737570706f727465642070726f786044820152681a58589b195555525160ba1b60648201526084016106f2565b50610793838383611b45565b61163f611b6a565b61015f805460ff191690557f5db9ee0a495bf2e6ff9c91a7834c1ba4fdd244a5e8aa4e537bd38aeae4b073aa335b6040516001600160a01b03909116815260200160405180910390a1565b61012d80546001600160a01b038381166001600160a01b0319831681179093556040519116919082907f8be0079c531659141344cd1fd0a4f28419497f9722a3daafe3b4186f6b6457e090600090a35050565b6116e5611bb4565b61015f805460ff191660011790557f62e78cea01bee320cd4e420270b5ea74000d11b0c9f74754ebdbfc544b05a25861166d3390565b600054610100900460ff16610a165760405162461bcd60e51b81526004016106f2906126cb565b600054610100900460ff166117695760405162461bcd60e51b81526004016106f2906126cb565b610aff8282611bfb565b600054610100900460ff1661179a5760405162461bcd60e51b81526004016106f2906126cb565b610a16611c3b565b816001600160a01b0316836001600160a01b0316036118035760405162461bcd60e51b815260206004820152601960248201527f4552433732313a20617070726f766520746f2063616c6c65720000000000000060448201526064016106f2565b6001600160a01b038381166000818152606a6020908152604080832094871680845294825291829020805460ff191686151590811790915591519182527f17307eab39ab6107e8899845ad3d59bd9653f200f220920489ca2b5937696c31910160405180910390a3505050565b61187b84848461130e565b61188784848484611c6b565b610e8a5760405162461bcd60e51b81526004016106f290612716565b6001600160a01b0382166118f95760405162461bcd60e51b815260206004820181905260248201527f4552433732313a206d696e7420746f20746865207a65726f206164647265737360448201526064016106f2565b6000818152606760205260409020546001600160a01b03161561195e5760405162461bcd60e51b815260206004820152601c60248201527f4552433732313a20746f6b656e20616c7265616479206d696e7465640000000060448201526064016106f2565b61196a600083836119f1565b6001600160a01b038216600090815260686020526040812080546001929061199390849061269f565b909155505060008181526067602052604080822080546001600160a01b0319166001600160a01b03861690811790915590518392907fddf252ad1be2c89b69c2b068fc378daa952ba7f163c4a11628f55a4df523b3ef908290a45050565b6001600160a01b038316611a4c57611a4781609980546000838152609a60205260408120829055600182018355919091527f72a152ddfb8e864297c917af52ea6c1c68aead0fee1a62673fcc7e0c94979d000155565b611a6f565b816001600160a01b0316836001600160a01b031614611a6f57611a6f8382611d6c565b6001600160a01b038216611a865761079381611e09565b826001600160a01b0316826001600160a01b031614610793576107938282611eb8565b6001600160a01b0381163b611b165760405162461bcd60e51b815260206004820152602d60248201527f455243313936373a206e657720696d706c656d656e746174696f6e206973206e60448201526c1bdd08184818dbdb9d1c9858dd609a1b60648201526084016106f2565b6000805160206127f583398151915280546001600160a01b0319166001600160a01b0392909216919091179055565b611b4e83611efc565b600082511180611b5b5750805b1561079357610e8a8383611f3c565b61015f5460ff16610a165760405162461bcd60e51b815260206004820152601460248201527314185d5cd8589b194e881b9bdd081c185d5cd95960621b60448201526064016106f2565b61015f5460ff1615610a165760405162461bcd60e51b815260206004820152601060248201526f14185d5cd8589b194e881c185d5cd95960821b60448201526064016106f2565b600054610100900460ff16611c225760405162461bcd60e51b81526004016106f2906126cb565b6065611c2e83826124bb565b50606661079382826124bb565b600054610100900460ff16611c625760405162461bcd60e51b81526004016106f2906126cb565b610a163361168a565b60006001600160a01b0384163b15611d6157604051630a85bd0160e11b81526001600160a01b0385169063150b7a0290611caf903390899088908890600401612768565b6020604051808303816000875af1925050508015611cea575060408051601f3d908101601f19168201909252611ce7918101906127a5565b60015b611d47573d808015611d18576040519150601f19603f3d011682016040523d82523d6000602084013e611d1d565b606091505b508051600003611d3f5760405162461bcd60e51b81526004016106f290612716565b805181602001fd5b6001600160e01b031916630a85bd0160e11b149050611306565b506001949350505050565b60006001611d7984610ca9565b611d83919061268c565b600083815260986020526040902054909150808214611dd6576001600160a01b03841660009081526097602090815260408083208584528252808320548484528184208190558352609890915290208190555b5060009182526098602090815260408084208490556001600160a01b039094168352609781528383209183525290812055565b609954600090611e1b9060019061268c565b6000838152609a602052604081205460998054939450909284908110611e4357611e43612660565b906000526020600020015490508060998381548110611e6457611e64612660565b6000918252602080832090910192909255828152609a90915260408082208490558582528120556099805480611e9c57611e9c6127c2565b6001900381819060005260206000200160009055905550505050565b6000611ec383610ca9565b6001600160a01b039093166000908152609760209081526040808320868452825280832085905593825260989052919091209190915550565b611f0581611aa9565b6040516001600160a01b038216907fbc7cd75a20ee27fd9adebab32041f755214dbc6bffa90cc0225b39da2e5c2d3b90600090a250565b60606001600160a01b0383163b611fa45760405162461bcd60e51b815260206004820152602660248201527f416464726573733a2064656c65676174652063616c6c20746f206e6f6e2d636f6044820152651b9d1c9858dd60d21b60648201526084016106f2565b600080846001600160a01b031684604051611fbf91906127d8565b600060405180830381855af49150503d8060008114611ffa576040519150601f19603f3d011682016040523d82523d6000602084013e611fff565b606091505b5091509150612027828260405180606001604052806027815260200161281560279139612030565b95945050505050565b6060831561203f575081612049565b6120498383612050565b9392505050565b8151156120605781518083602001fd5b8060405162461bcd60e51b81526004016106f291906120fd565b6001600160e01b031981168114610a0357600080fd5b6000602082840312156120a257600080fd5b81356120498161207a565b60005b838110156120c85781810151838201526020016120b0565b50506000910152565b600081518084526120e98160208601602086016120ad565b601f01601f19169290920160200192915050565b60208152600061204960208301846120d1565b60006020828403121561212257600080fd5b5035919050565b80356001600160a01b038116811461214057600080fd5b919050565b6000806040838503121561215857600080fd5b61216183612129565b946020939093013593505050565b634e487b7160e01b600052604160045260246000fd5b600082601f83011261219657600080fd5b813567ffffffffffffffff808211156121b1576121b161216f565b604051601f8301601f19908116603f011681019082821181831017156121d9576121d961216f565b816040528381528660208588010111156121f257600080fd5b836020870160208301376000602085830101528094505050505092915050565b6000806040838503121561222557600080fd5b82359150602083013567ffffffffffffffff81111561224357600080fd5b61224f85828601612185565b9150509250929050565b60008060006060848603121561226e57600080fd5b61227784612129565b925061228560208501612129565b9150604084013590509250925092565b6000602082840312156122a757600080fd5b61204982612129565b600080604083850312156122c357600080fd5b6122cc83612129565b9150602083013567ffffffffffffffff81111561224357600080fd5b6000806000606084860312156122fd57600080fd5b61230684612129565b9250602084013567ffffffffffffffff8082111561232357600080fd5b61232f87838801612185565b9350604086013591508082111561234557600080fd5b5061235286828701612185565b9150509250925092565b6000806040838503121561236f57600080fd5b61237883612129565b91506020830135801515811461238d57600080fd5b809150509250929050565b600080600080608085870312156123ae57600080fd5b6123b785612129565b93506123c560208601612129565b925060408501359150606085013567ffffffffffffffff8111156123e857600080fd5b6123f487828801612185565b91505092959194509250565b6000806040838503121561241357600080fd5b61241c83612129565b915061242a60208401612129565b90509250929050565b600181811c9082168061244757607f821691505b60208210810361246757634e487b7160e01b600052602260045260246000fd5b50919050565b601f82111561079357600081815260208120601f850160051c810160208610156124945750805b601f850160051c820191505b818110156124b3578281556001016124a0565b505050505050565b815167ffffffffffffffff8111156124d5576124d561216f565b6124e9816124e38454612433565b8461246d565b602080601f83116001811461251e57600084156125065750858301515b600019600386901b1c1916600185901b1785556124b3565b600085815260208120601f198616915b8281101561254d5788860151825594840194600190910190840161252e565b508582101561256b5787850151600019600388901b60f8161c191681555b5050505050600190811b01905550565b6020808252602d908201527f4552433732313a2063616c6c6572206973206e6f7420746f6b656e206f776e6560408201526c1c881bdc88185c1c1c9bdd9959609a1b606082015260800190565b6020808252602c908201527f46756e6374696f6e206d7573742062652063616c6c6564207468726f7567682060408201526b19195b1959d85d1958d85b1b60a21b606082015260800190565b6020808252602c908201527f46756e6374696f6e206d7573742062652063616c6c6564207468726f7567682060408201526b6163746976652070726f787960a01b606082015260800190565b634e487b7160e01b600052603260045260246000fd5b634e487b7160e01b600052601160045260246000fd5b818103818111156105bf576105bf612676565b808201808211156105bf576105bf612676565b6000602082840312156126c457600080fd5b5051919050565b6020808252602b908201527f496e697469616c697a61626c653a20636f6e7472616374206973206e6f74206960408201526a6e697469616c697a696e6760a81b606082015260800190565b60208082526032908201527f4552433732313a207472616e7366657220746f206e6f6e20455243373231526560408201527131b2b4bb32b91034b6b83632b6b2b73a32b960711b606082015260800190565b6001600160a01b038581168252841660208201526040810183905260806060820181905260009061279b908301846120d1565b9695505050505050565b6000602082840312156127b757600080fd5b81516120498161207a565b634e487b7160e01b600052603160045260246000fd5b600082516127ea8184602087016120ad565b919091019291505056fe360894a13ba1a3210667c828492db98dca3e2076cc3735a920a3ca505d382bbc416464726573733a206c6f772d6c6576656c2064656c65676174652063616c6c206661696c6564a2646970667358221220c9f7c6f989d68f483b1e1685ed14e587f1db0c1e43a001b27ca723a13075332964736f6c63430008100033",
  "linkReferences": {},
  "deployedLinkReferences": {}
}