{
  "_format": "hh-sol-artifact-1",
  "contractName": "Raft",
  "sourceName": "src/Raft.sol",
  "abi": [
    {
      "inputs": [],
      "stateMutability": "nonpayable",
      "type": "constructor"
    },
    {
      "anonymous": false,
      "inputs": [
        {
          "indexed": false,
          "internalType": "address",
          "name": "previousAdmin",
          "type": "address"
        },
        {
          "indexed": false,
          "internalType": "address",
          "name": "newAdmin",
          "type": "address"
        }
      ],
      "name": "AdminChanged",
      "type": "event"
    },
    {
      "anonymous": false,
      "inputs": [
        {
          "indexed": true,
          "internalType": "address",
          "name": "owner",
          "type": "address"
        },
        {
          "indexed": true,
          "internalType": "address",
          "name": "approved",
          "type": "address"
        },
        {
          "indexed": true,
          "internalType": "uint256",
          "name": "tokenId",
          "type": "uint256"
        }
      ],
      "name": "Approval",
      "type": "event"
    },
    {
      "anonymous": false,
      "inputs": [
        {
          "indexed": true,
          "internalType": "address",
          "name": "owner",
          "type": "address"
        },
        {
          "indexed": true,
          "internalType": "address",
          "name": "operator",
          "type": "address"
        },
        {
          "indexed": false,
          "internalType": "bool",
          "name": "approved",
          "type": "bool"
        }
      ],
      "name": "ApprovalForAll",
      "type": "event"
    },
    {
      "anonymous": false,
      "inputs": [
        {
          "indexed": true,
          "internalType": "address",
          "name": "beacon",
          "type": "address"
        }
      ],
      "name": "BeaconUpgraded",
      "type": "event"
    },
    {
      "anonymous": false,
      "inputs": [
        {
          "indexed": false,
          "internalType": "uint8",
          "name": "version",
          "type": "uint8"
        }
      ],
      "name": "Initialized",
      "type": "event"
    },
    {
      "anonymous": false,
      "inputs": [
        {
          "indexed": true,
          "internalType": "uint256",
          "name": "tokenId",
          "type": "uint256"
        }
      ],
      "name": "MetadataUpdate",
      "type": "event"
    },
    {
      "anonymous": false,
      "inputs": [
        {
          "indexed": true,
          "internalType": "address",
          "name": "previousOwner",
          "type": "address"
        },
        {
          "indexed": true,
          "internalType": "address",
          "name": "newOwner",
          "type": "address"
        }
      ],
      "name": "OwnershipTransferred",
      "type": "event"
    },
    {
      "anonymous": false,
      "inputs": [
        {
          "indexed": false,
          "internalType": "address",
          "name": "account",
          "type": "address"
        }
      ],
      "name": "Paused",
      "type": "event"
    },
    {
      "anonymous": false,
      "inputs": [
        {
          "indexed": true,
          "internalType": "address",
          "name": "from",
          "type": "address"
        },
        {
          "indexed": true,
          "internalType": "address",
          "name": "to",
          "type": "address"
        },
        {
          "indexed": true,
          "internalType": "uint256",
          "name": "tokenId",
          "type": "uint256"
        }
      ],
      "name": "Transfer",
      "type": "event"
    },
    {
      "anonymous": false,
      "inputs": [
        {
          "indexed": false,
          "internalType": "address",
          "name": "account",
          "type": "address"
        }
      ],
      "name": "Unpaused",
      "type": "event"
    },
    {
      "anonymous": false,
      "inputs": [
        {
          "indexed": true,
          "internalType": "address",
          "name": "implementation",
          "type": "address"
        }
      ],
      "name": "Upgraded",
      "type": "event"
    },
    {
      "inputs": [
        {
          "internalType": "address",
          "name": "to",
          "type": "address"
        },
        {
          "internalType": "uint256",
          "name": "tokenId",
          "type": "uint256"
        }
      ],
      "name": "approve",
      "outputs": [],
      "stateMutability": "nonpayable",
      "type": "function"
    },
    {
      "inputs": [
        {
          "internalType": "address",
          "name": "owner",
          "type": "address"
        }
      ],
      "name": "balanceOf",
      "outputs": [
        {
          "internalType": "uint256",
          "name": "",
          "type": "uint256"
        }
      ],
      "stateMutability": "view",
      "type": "function"
    },
    {
      "inputs": [
        {
          "internalType": "uint256",
          "name": "tokenId",
          "type": "uint256"
        }
      ],
      "name": "getApproved",
      "outputs": [
        {
          "internalType": "address",
          "name": "",
          "type": "address"
        }
      ],
      "stateMutability": "view",
      "type": "function"
    },
    {
      "inputs": [],
      "name": "getGeorge",
      "outputs": [
        {
          "internalType": "string",
          "name": "",
          "type": "string"
        }
      ],
      "stateMutability": "pure",
      "type": "function"
    },
    {
      "inputs": [
        {
          "internalType": "address",
          "name": "nextOwner",
          "type": "address"
        },
        {
          "internalType": "string",
          "name": "name_",
          "type": "string"
        },
        {
          "internalType": "string",
          "name": "symbol_",
          "type": "string"
        }
      ],
      "name": "initialize",
      "outputs": [],
      "stateMutability": "nonpayable",
      "type": "function"
    },
    {
      "inputs": [
        {
          "internalType": "address",
          "name": "owner",
          "type": "address"
        },
        {
          "internalType": "address",
          "name": "operator",
          "type": "address"
        }
      ],
      "name": "isApprovedForAll",
      "outputs": [
        {
          "internalType": "bool",
          "name": "",
          "type": "bool"
        }
      ],
      "stateMutability": "view",
      "type": "function"
    },
    {
      "inputs": [
        {
          "internalType": "address",
          "name": "recipient",
          "type": "address"
        },
        {
          "internalType": "string",
          "name": "uri",
          "type": "string"
        }
      ],
      "name": "mint",
      "outputs": [
        {
          "internalType": "uint256",
          "name": "",
          "type": "uint256"
        }
      ],
      "stateMutability": "nonpayable",
      "type": "function"
    },
    {
      "inputs": [],
      "name": "name",
      "outputs": [
        {
          "internalType": "string",
          "name": "",
          "type": "string"
        }
      ],
      "stateMutability": "view",
      "type": "function"
    },
    {
      "inputs": [],
      "name": "owner",
      "outputs": [
        {
          "internalType": "address",
          "name": "",
          "type": "address"
        }
      ],
      "stateMutability": "view",
      "type": "function"
    },
    {
      "inputs": [
        {
          "internalType": "uint256",
          "name": "tokenId",
          "type": "uint256"
        }
      ],
      "name": "ownerOf",
      "outputs": [
        {
          "internalType": "address",
          "name": "",
          "type": "address"
        }
      ],
      "stateMutability": "view",
      "type": "function"
    },
    {
      "inputs": [],
      "name": "pause",
      "outputs": [],
      "stateMutability": "nonpayable",
      "type": "function"
    },
    {
      "inputs": [],
      "name": "paused",
      "outputs": [
        {
          "internalType": "bool",
          "name": "",
          "type": "bool"
        }
      ],
      "stateMutability": "view",
      "type": "function"
    },
    {
      "inputs": [],
      "name": "proxiableUUID",
      "outputs": [
        {
          "internalType": "bytes32",
          "name": "",
          "type": "bytes32"
        }
      ],
      "stateMutability": "view",
      "type": "function"
    },
    {
      "inputs": [],
      "name": "renounceOwnership",
      "outputs": [],
      "stateMutability": "nonpayable",
      "type": "function"
    },
    {
      "inputs": [
        {
          "internalType": "address",
          "name": "from",
          "type": "address"
        },
        {
          "internalType": "address",
          "name": "to",
          "type": "address"
        },
        {
          "internalType": "uint256",
          "name": "tokenId",
          "type": "uint256"
        }
      ],
      "name": "safeTransferFrom",
      "outputs": [],
      "stateMutability": "nonpayable",
      "type": "function"
    },
    {
      "inputs": [
        {
          "internalType": "address",
          "name": "from",
          "type": "address"
        },
        {
          "internalType": "address",
          "name": "to",
          "type": "address"
        },
        {
          "internalType": "uint256",
          "name": "tokenId",
          "type": "uint256"
        },
        {
          "internalType": "bytes",
          "name": "data",
          "type": "bytes"
        }
      ],
      "name": "safeTransferFrom",
      "outputs": [],
      "stateMutability": "nonpayable",
      "type": "function"
    },
    {
      "inputs": [
        {
          "internalType": "address",
          "name": "operator",
          "type": "address"
        },
        {
          "internalType": "bool",
          "name": "approved",
          "type": "bool"
        }
      ],
      "name": "setApprovalForAll",
      "outputs": [],
      "stateMutability": "nonpayable",
      "type": "function"
    },
    {
      "inputs": [
        {
          "internalType": "uint256",
          "name": "tokenId",
          "type": "uint256"
        },
        {
          "internalType": "string",
          "name": "uri",
          "type": "string"
        }
      ],
      "name": "setTokenURI",
      "outputs": [],
      "stateMutability": "nonpayable",
      "type": "function"
    },
    {
      "inputs": [
        {
          "internalType": "bytes4",
          "name": "interfaceId",
          "type": "bytes4"
        }
      ],
      "name": "supportsInterface",
      "outputs": [
        {
          "internalType": "bool",
          "name": "",
          "type": "bool"
        }
      ],
      "stateMutability": "view",
      "type": "function"
    },
    {
      "inputs": [],
      "name": "symbol",
      "outputs": [
        {
          "internalType": "string",
          "name": "",
          "type": "string"
        }
      ],
      "stateMutability": "view",
      "type": "function"
    },
    {
      "inputs": [
        {
          "internalType": "uint256",
          "name": "index",
          "type": "uint256"
        }
      ],
      "name": "tokenByIndex",
      "outputs": [
        {
          "internalType": "uint256",
          "name": "",
          "type": "uint256"
        }
      ],
      "stateMutability": "view",
      "type": "function"
    },
    {
      "inputs": [
        {
          "internalType": "address",
          "name": "owner",
          "type": "address"
        },
        {
          "internalType": "uint256",
          "name": "index",
          "type": "uint256"
        }
      ],
      "name": "tokenOfOwnerByIndex",
      "outputs": [
        {
          "internalType": "uint256",
          "name": "",
          "type": "uint256"
        }
      ],
      "stateMutability": "view",
      "type": "function"
    },
    {
      "inputs": [
        {
          "internalType": "uint256",
          "name": "tokenId",
          "type": "uint256"
        }
      ],
      "name": "tokenURI",
      "outputs": [
        {
          "internalType": "string",
          "name": "",
          "type": "string"
        }
      ],
      "stateMutability": "view",
      "type": "function"
    },
    {
      "inputs": [],
      "name": "totalSupply",
      "outputs": [
        {
          "internalType": "uint256",
          "name": "",
          "type": "uint256"
        }
      ],
      "stateMutability": "view",
      "type": "function"
    },
    {
      "inputs": [
        {
          "internalType": "address",
          "name": "from",
          "type": "address"
        },
        {
          "internalType": "address",
          "name": "to",
          "type": "address"
        },
        {
          "internalType": "uint256",
          "name": "tokenId",
          "type": "uint256"
        }
      ],
      "name": "transferFrom",
      "outputs": [],
      "stateMutability": "nonpayable",
      "type": "function"
    },
    {
      "inputs": [
        {
          "internalType": "address",
          "name": "newOwner",
          "type": "address"
        }
      ],
      "name": "transferOwnership",
      "outputs": [],
      "stateMutability": "nonpayable",
      "type": "function"
    },
    {
      "inputs": [],
      "name": "unpause",
      "outputs": [],
      "stateMutability": "nonpayable",
      "type": "function"
    },
    {
      "inputs": [
        {
          "internalType": "address",
          "name": "newImplementation",
          "type": "address"
        }
      ],
      "name": "upgradeTo",
      "outputs": [],
      "stateMutability": "nonpayable",
      "type": "function"
    },
    {
      "inputs": [
        {
          "internalType": "address",
          "name": "newImplementation",
          "type": "address"
        },
        {
          "internalType": "bytes",
          "name": "data",
          "type": "bytes"
        }
      ],
      "name": "upgradeToAndCall",
      "outputs": [],
      "stateMutability": "payable",
      "type": "function"
    }
  ],
  "bytecode": "0x60a0604052306080523480156200001557600080fd5b506200002062000026565b620000e8565b600054610100900460ff1615620000935760405162461bcd60e51b815260206004820152602760248201527f496e697469616c697a61626c653a20636f6e747261637420697320696e697469604482015266616c697a696e6760c81b606482015260840160405180910390fd5b60005460ff9081161015620000e6576000805460ff191660ff9081179091556040519081527f7f26b83ff96e1f2b6a682f133852f6798a09c465da95921460cefb38474024989060200160405180910390a15b565b60805161285662000120600039600081816109160152818161095601528181610a2201528181610a620152610b8801526128566000f3fe6080604052600436106101c25760003560e01c80635c975abb116100f757806395d89b4111610095578063c87b56dd11610064578063c87b56dd146104d6578063d0def521146104f6578063e985e9c514610516578063f2fde38b1461055f57600080fd5b806395d89b4114610456578063a22cb4651461046b578063b88d4fde1461048b578063c58a4ff4146104ab57600080fd5b8063715018a6116100d1578063715018a6146103ed5780638456cb59146104025780638da5cb5b14610417578063906571471461043657600080fd5b80635c975abb146103945780636352211e146103ad57806370a08231146103cd57600080fd5b80632f745c591161016457806342842e0e1161013e57806342842e0e1461032c5780634f1ef2861461034c5780634f6ccce71461035f57806352d1902d1461037f57600080fd5b80632f745c59146102d75780633659cfe6146102f75780633f4ba83a1461031757600080fd5b8063095ea7b3116101a0578063095ea7b314610256578063162094c41461027857806318160ddd1461029857806323b872dd146102b757600080fd5b806301ffc9a7146101c757806306fdde03146101fc578063081812fc1461021e575b600080fd5b3480156101d357600080fd5b506101e76101e2366004612075565b61057f565b60405190151581526020015b60405180910390f35b34801561020857600080fd5b506102116105aa565b6040516101f391906120e2565b34801561022a57600080fd5b5061023e6102393660046120f5565b61063c565b6040516001600160a01b0390911681526020016101f3565b34801561026257600080fd5b5061027661027136600461212a565b610663565b005b34801561028457600080fd5b506102766102933660046121f7565b61077d565b3480156102a457600080fd5b506099545b6040519081526020016101f3565b3480156102c357600080fd5b506102766102d236600461223e565b610845565b3480156102e357600080fd5b506102a96102f236600461212a565b610876565b34801561030357600080fd5b5061027661031236600461227a565b61090c565b34801561032357600080fd5b506102766109eb565b34801561033857600080fd5b5061027661034736600461223e565b6109fd565b61027661035a366004612295565b610a18565b34801561036b57600080fd5b506102a961037a3660046120f5565b610ae8565b34801561038b57600080fd5b506102a9610b7b565b3480156103a057600080fd5b5061015f5460ff166101e7565b3480156103b957600080fd5b5061023e6103c83660046120f5565b610c2e565b3480156103d957600080fd5b506102a96103e836600461227a565b610c8e565b3480156103f957600080fd5b50610276610d14565b34801561040e57600080fd5b50610276610d26565b34801561042357600080fd5b5061012d546001600160a01b031661023e565b34801561044257600080fd5b506102766104513660046122cd565b610d36565b34801561046257600080fd5b50610211610e75565b34801561047757600080fd5b50610276610486366004612341565b610e84565b34801561049757600080fd5b506102766104a636600461237d565b610e8f565b3480156104b757600080fd5b50604080518082019091526002815261189960f11b6020820152610211565b3480156104e257600080fd5b506102116104f13660046120f5565b610ec1565b34801561050257600080fd5b506102a9610511366004612295565b610f64565b34801561052257600080fd5b506101e76105313660046123e5565b6001600160a01b039182166000908152606a6020908152604080832093909416825291909152205460ff1690565b34801561056b57600080fd5b5061027661057a36600461227a565b611086565b60006001600160e01b0319821663780e9d6360e01b14806105a457506105a4826110fc565b92915050565b6060606580546105b990612418565b80601f01602080910402602001604051908101604052809291908181526020018280546105e590612418565b80156106325780601f1061060757610100808354040283529160200191610632565b820191906000526020600020905b81548152906001019060200180831161061557829003601f168201915b5050505050905090565b60006106478261114c565b506000908152606960205260409020546001600160a01b031690565b600061066e82610c2e565b9050806001600160a01b0316836001600160a01b0316036106e05760405162461bcd60e51b815260206004820152602160248201527f4552433732313a20617070726f76616c20746f2063757272656e74206f776e656044820152603960f91b60648201526084015b60405180910390fd5b336001600160a01b03821614806106fc57506106fc8133610531565b61076e5760405162461bcd60e51b815260206004820152603d60248201527f4552433732313a20617070726f76652063616c6c6572206973206e6f7420746f60448201527f6b656e206f776e6572206f7220617070726f76656420666f7220616c6c00000060648201526084016106d7565b61077883836111ab565b505050565b610785611219565b6000828152606760205260409020546001600160a01b03166107fc5760405162461bcd60e51b815260206004820152602a60248201527f5f736574546f6b656e5552493a2055524920736574206f66206e6f6e657869736044820152693a32b73a103a37b5b2b760b11b60648201526084016106d7565b60008281526101926020526040902061081582826124a0565b5060405182907ff8e1a15aba9398e019f0b49df1a4fde98ee17ae345cb5f6b5e2c27f5033e8ce790600090a25050565b61084f3382611274565b61086b5760405162461bcd60e51b81526004016106d790612560565b6107788383836112f3565b600061088183610c8e565b82106108e35760405162461bcd60e51b815260206004820152602b60248201527f455243373231456e756d657261626c653a206f776e657220696e646578206f7560448201526a74206f6620626f756e647360a81b60648201526084016106d7565b506001600160a01b03919091166000908152609760209081526040808320938352929052205490565b6001600160a01b037f00000000000000000000000000000000000000000000000000000000000000001630036109545760405162461bcd60e51b81526004016106d7906125ad565b7f00000000000000000000000000000000000000000000000000000000000000006001600160a01b031661099d6000805160206127da833981519152546001600160a01b031690565b6001600160a01b0316146109c35760405162461bcd60e51b81526004016106d7906125f9565b6109cc816114a9565b604080516000808252602082019092526109e8918391906114b1565b50565b6109f3611219565b6109fb61161c565b565b61077883838360405180602001604052806000815250610e8f565b6001600160a01b037f0000000000000000000000000000000000000000000000000000000000000000163003610a605760405162461bcd60e51b81526004016106d7906125ad565b7f00000000000000000000000000000000000000000000000000000000000000006001600160a01b0316610aa96000805160206127da833981519152546001600160a01b031690565b6001600160a01b031614610acf5760405162461bcd60e51b81526004016106d7906125f9565b610ad8826114a9565b610ae4828260016114b1565b5050565b6000610af360995490565b8210610b565760405162461bcd60e51b815260206004820152602c60248201527f455243373231456e756d657261626c653a20676c6f62616c20696e646578206f60448201526b7574206f6620626f756e647360a01b60648201526084016106d7565b60998281548110610b6957610b69612645565b90600052602060002001549050919050565b6000306001600160a01b037f00000000000000000000000000000000000000000000000000000000000000001614610c1b5760405162461bcd60e51b815260206004820152603860248201527f555550535570677261646561626c653a206d757374206e6f742062652063616c60448201527f6c6564207468726f7567682064656c656761746563616c6c000000000000000060648201526084016106d7565b506000805160206127da83398151915290565b6000818152606760205260408120546001600160a01b0316806105a45760405162461bcd60e51b8152602060048201526018602482015277115490cdcc8c4e881a5b9d985b1a59081d1bdad95b88125160421b60448201526064016106d7565b60006001600160a01b038216610cf85760405162461bcd60e51b815260206004820152602960248201527f4552433732313a2061646472657373207a65726f206973206e6f7420612076616044820152683634b21037bbb732b960b91b60648201526084016106d7565b506001600160a01b031660009081526068602052604090205490565b610d1c611219565b6109fb600061166f565b610d2e611219565b6109fb6116c2565b600054610100900460ff1615808015610d565750600054600160ff909116105b80610d705750303b158015610d70575060005460ff166001145b610dd35760405162461bcd60e51b815260206004820152602e60248201527f496e697469616c697a61626c653a20636f6e747261637420697320616c72656160448201526d191e481a5b9a5d1a585b1a5e995960921b60648201526084016106d7565b6000805460ff191660011790558015610df6576000805461ff0019166101001790555b610dfe611700565b610e088383611727565b610e10611700565b610e18611758565b610e2184611086565b610e296116c2565b8015610e6f576000805461ff0019169055604051600181527f7f26b83ff96e1f2b6a682f133852f6798a09c465da95921460cefb38474024989060200160405180910390a15b50505050565b6060606680546105b990612418565b610ae4338383611787565b610e993383611274565b610eb55760405162461bcd60e51b81526004016106d790612560565b610e6f84848484611855565b600081815261019260205260409020805460609190610edf90612418565b80601f0160208091040260200160405190810160405280929190818152602001828054610f0b90612418565b8015610f585780601f10610f2d57610100808354040283529160200191610f58565b820191906000526020600020905b815481529060010190602001808311610f3b57829003601f168201915b50505050509050919050565b6000610f7961012d546001600160a01b031690565b6001600160a01b0316336001600160a01b03161480610f9c575061015f5460ff16155b610fe85760405162461bcd60e51b815260206004820152601a60248201527f6d696e743a20756e617574686f72697a656420746f206d696e7400000000000060448201526064016106d7565b610ff761019180546001019055565b60006110036101915490565b90506001600160a01b03841661105b5760405162461bcd60e51b815260206004820152601b60248201527f63616e6e6f74206d696e7420746f207a65726f2061646472657373000000000060448201526064016106d7565b6110658482611888565b60008181526101926020526040902061107e84826124a0565b509392505050565b61108e611219565b6001600160a01b0381166110f35760405162461bcd60e51b815260206004820152602660248201527f4f776e61626c653a206e6577206f776e657220697320746865207a65726f206160448201526564647265737360d01b60648201526084016106d7565b6109e88161166f565b60006001600160e01b031982166380ac58cd60e01b148061112d57506001600160e01b03198216635b5e139f60e01b145b806105a457506301ffc9a760e01b6001600160e01b03198316146105a4565b6000818152606760205260409020546001600160a01b03166109e85760405162461bcd60e51b8152602060048201526018602482015277115490cdcc8c4e881a5b9d985b1a59081d1bdad95b88125160421b60448201526064016106d7565b600081815260696020526040902080546001600160a01b0319166001600160a01b03841690811790915581906111e082610c2e565b6001600160a01b03167f8c5be1e5ebec7d5bd14f71427d1e84f3dd0314c0f7b2291e5b200ac8c7c3b92560405160405180910390a45050565b61012d546001600160a01b031633146109fb5760405162461bcd60e51b815260206004820181905260248201527f4f776e61626c653a2063616c6c6572206973206e6f7420746865206f776e657260448201526064016106d7565b60008061128083610c2e565b9050806001600160a01b0316846001600160a01b031614806112c757506001600160a01b038082166000908152606a602090815260408083209388168352929052205460ff165b806112eb5750836001600160a01b03166112e08461063c565b6001600160a01b0316145b949350505050565b826001600160a01b031661130682610c2e565b6001600160a01b03161461136a5760405162461bcd60e51b815260206004820152602560248201527f4552433732313a207472616e736665722066726f6d20696e636f72726563742060448201526437bbb732b960d91b60648201526084016106d7565b6001600160a01b0382166113cc5760405162461bcd60e51b8152602060048201526024808201527f4552433732313a207472616e7366657220746f20746865207a65726f206164646044820152637265737360e01b60648201526084016106d7565b6113d78383836119d6565b600081815260696020908152604080832080546001600160a01b03191690556001600160a01b03861683526068909152812080546001929061141a908490612671565b90915550506001600160a01b0382166000908152606860205260408120805460019290611448908490612684565b909155505060008181526067602052604080822080546001600160a01b0319166001600160a01b0386811691821790925591518493918716917fddf252ad1be2c89b69c2b068fc378daa952ba7f163c4a11628f55a4df523b3ef91a4505050565b6109e8611219565b7f4910fdfa16fed3260ed0e7147f7cc6da11a60208b5b9406d12a635614ffd91435460ff16156114e45761077883611a8e565b826001600160a01b03166352d1902d6040518163ffffffff1660e01b8152600401602060405180830381865afa92505050801561153e575060408051601f3d908101601f1916820190925261153b91810190612697565b60015b6115a15760405162461bcd60e51b815260206004820152602e60248201527f45524331393637557067726164653a206e657720696d706c656d656e7461746960448201526d6f6e206973206e6f74205555505360901b60648201526084016106d7565b6000805160206127da83398151915281146116105760405162461bcd60e51b815260206004820152602960248201527f45524331393637557067726164653a20756e737570706f727465642070726f786044820152681a58589b195555525160ba1b60648201526084016106d7565b50610778838383611b2a565b611624611b4f565b61015f805460ff191690557f5db9ee0a495bf2e6ff9c91a7834c1ba4fdd244a5e8aa4e537bd38aeae4b073aa335b6040516001600160a01b03909116815260200160405180910390a1565b61012d80546001600160a01b038381166001600160a01b0319831681179093556040519116919082907f8be0079c531659141344cd1fd0a4f28419497f9722a3daafe3b4186f6b6457e090600090a35050565b6116ca611b99565b61015f805460ff191660011790557f62e78cea01bee320cd4e420270b5ea74000d11b0c9f74754ebdbfc544b05a2586116523390565b600054610100900460ff166109fb5760405162461bcd60e51b81526004016106d7906126b0565b600054610100900460ff1661174e5760405162461bcd60e51b81526004016106d7906126b0565b610ae48282611be0565b600054610100900460ff1661177f5760405162461bcd60e51b81526004016106d7906126b0565b6109fb611c20565b816001600160a01b0316836001600160a01b0316036117e85760405162461bcd60e51b815260206004820152601960248201527f4552433732313a20617070726f766520746f2063616c6c65720000000000000060448201526064016106d7565b6001600160a01b038381166000818152606a6020908152604080832094871680845294825291829020805460ff191686151590811790915591519182527f17307eab39ab6107e8899845ad3d59bd9653f200f220920489ca2b5937696c31910160405180910390a3505050565b6118608484846112f3565b61186c84848484611c50565b610e6f5760405162461bcd60e51b81526004016106d7906126fb565b6001600160a01b0382166118de5760405162461bcd60e51b815260206004820181905260248201527f4552433732313a206d696e7420746f20746865207a65726f206164647265737360448201526064016106d7565b6000818152606760205260409020546001600160a01b0316156119435760405162461bcd60e51b815260206004820152601c60248201527f4552433732313a20746f6b656e20616c7265616479206d696e7465640000000060448201526064016106d7565b61194f600083836119d6565b6001600160a01b0382166000908152606860205260408120805460019290611978908490612684565b909155505060008181526067602052604080822080546001600160a01b0319166001600160a01b03861690811790915590518392907fddf252ad1be2c89b69c2b068fc378daa952ba7f163c4a11628f55a4df523b3ef908290a45050565b6001600160a01b038316611a3157611a2c81609980546000838152609a60205260408120829055600182018355919091527f72a152ddfb8e864297c917af52ea6c1c68aead0fee1a62673fcc7e0c94979d000155565b611a54565b816001600160a01b0316836001600160a01b031614611a5457611a548382611d51565b6001600160a01b038216611a6b5761077881611dee565b826001600160a01b0316826001600160a01b031614610778576107788282611e9d565b6001600160a01b0381163b611afb5760405162461bcd60e51b815260206004820152602d60248201527f455243313936373a206e657720696d706c656d656e746174696f6e206973206e60448201526c1bdd08184818dbdb9d1c9858dd609a1b60648201526084016106d7565b6000805160206127da83398151915280546001600160a01b0319166001600160a01b0392909216919091179055565b611b3383611ee1565b600082511180611b405750805b1561077857610e6f8383611f21565b61015f5460ff166109fb5760405162461bcd60e51b815260206004820152601460248201527314185d5cd8589b194e881b9bdd081c185d5cd95960621b60448201526064016106d7565b61015f5460ff16156109fb5760405162461bcd60e51b815260206004820152601060248201526f14185d5cd8589b194e881c185d5cd95960821b60448201526064016106d7565b600054610100900460ff16611c075760405162461bcd60e51b81526004016106d7906126b0565b6065611c1383826124a0565b50606661077882826124a0565b600054610100900460ff16611c475760405162461bcd60e51b81526004016106d7906126b0565b6109fb3361166f565b60006001600160a01b0384163b15611d4657604051630a85bd0160e11b81526001600160a01b0385169063150b7a0290611c9490339089908890889060040161274d565b6020604051808303816000875af1925050508015611ccf575060408051601f3d908101601f19168201909252611ccc9181019061278a565b60015b611d2c573d808015611cfd576040519150601f19603f3d011682016040523d82523d6000602084013e611d02565b606091505b508051600003611d245760405162461bcd60e51b81526004016106d7906126fb565b805181602001fd5b6001600160e01b031916630a85bd0160e11b1490506112eb565b506001949350505050565b60006001611d5e84610c8e565b611d689190612671565b600083815260986020526040902054909150808214611dbb576001600160a01b03841660009081526097602090815260408083208584528252808320548484528184208190558352609890915290208190555b5060009182526098602090815260408084208490556001600160a01b039094168352609781528383209183525290812055565b609954600090611e0090600190612671565b6000838152609a602052604081205460998054939450909284908110611e2857611e28612645565b906000526020600020015490508060998381548110611e4957611e49612645565b6000918252602080832090910192909255828152609a90915260408082208490558582528120556099805480611e8157611e816127a7565b6001900381819060005260206000200160009055905550505050565b6000611ea883610c8e565b6001600160a01b039093166000908152609760209081526040808320868452825280832085905593825260989052919091209190915550565b611eea81611a8e565b6040516001600160a01b038216907fbc7cd75a20ee27fd9adebab32041f755214dbc6bffa90cc0225b39da2e5c2d3b90600090a250565b60606001600160a01b0383163b611f895760405162461bcd60e51b815260206004820152602660248201527f416464726573733a2064656c65676174652063616c6c20746f206e6f6e2d636f6044820152651b9d1c9858dd60d21b60648201526084016106d7565b600080846001600160a01b031684604051611fa491906127bd565b600060405180830381855af49150503d8060008114611fdf576040519150601f19603f3d011682016040523d82523d6000602084013e611fe4565b606091505b509150915061200c82826040518060600160405280602781526020016127fa60279139612015565b95945050505050565b6060831561202457508161202e565b61202e8383612035565b9392505050565b8151156120455781518083602001fd5b8060405162461bcd60e51b81526004016106d791906120e2565b6001600160e01b0319811681146109e857600080fd5b60006020828403121561208757600080fd5b813561202e8161205f565b60005b838110156120ad578181015183820152602001612095565b50506000910152565b600081518084526120ce816020860160208601612092565b601f01601f19169290920160200192915050565b60208152600061202e60208301846120b6565b60006020828403121561210757600080fd5b5035919050565b80356001600160a01b038116811461212557600080fd5b919050565b6000806040838503121561213d57600080fd5b6121468361210e565b946020939093013593505050565b634e487b7160e01b600052604160045260246000fd5b600082601f83011261217b57600080fd5b813567ffffffffffffffff8082111561219657612196612154565b604051601f8301601f19908116603f011681019082821181831017156121be576121be612154565b816040528381528660208588010111156121d757600080fd5b836020870160208301376000602085830101528094505050505092915050565b6000806040838503121561220a57600080fd5b82359150602083013567ffffffffffffffff81111561222857600080fd5b6122348582860161216a565b9150509250929050565b60008060006060848603121561225357600080fd5b61225c8461210e565b925061226a6020850161210e565b9150604084013590509250925092565b60006020828403121561228c57600080fd5b61202e8261210e565b600080604083850312156122a857600080fd5b6122b18361210e565b9150602083013567ffffffffffffffff81111561222857600080fd5b6000806000606084860312156122e257600080fd5b6122eb8461210e565b9250602084013567ffffffffffffffff8082111561230857600080fd5b6123148783880161216a565b9350604086013591508082111561232a57600080fd5b506123378682870161216a565b9150509250925092565b6000806040838503121561235457600080fd5b61235d8361210e565b91506020830135801515811461237257600080fd5b809150509250929050565b6000806000806080858703121561239357600080fd5b61239c8561210e565b93506123aa6020860161210e565b925060408501359150606085013567ffffffffffffffff8111156123cd57600080fd5b6123d98782880161216a565b91505092959194509250565b600080604083850312156123f857600080fd5b6124018361210e565b915061240f6020840161210e565b90509250929050565b600181811c9082168061242c57607f821691505b60208210810361244c57634e487b7160e01b600052602260045260246000fd5b50919050565b601f82111561077857600081815260208120601f850160051c810160208610156124795750805b601f850160051c820191505b8181101561249857828155600101612485565b505050505050565b815167ffffffffffffffff8111156124ba576124ba612154565b6124ce816124c88454612418565b84612452565b602080601f83116001811461250357600084156124eb5750858301515b600019600386901b1c1916600185901b178555612498565b600085815260208120601f198616915b8281101561253257888601518255948401946001909101908401612513565b50858210156125505787850151600019600388901b60f8161c191681555b5050505050600190811b01905550565b6020808252602d908201527f4552433732313a2063616c6c6572206973206e6f7420746f6b656e206f776e6560408201526c1c881bdc88185c1c1c9bdd9959609a1b606082015260800190565b6020808252602c908201527f46756e6374696f6e206d7573742062652063616c6c6564207468726f7567682060408201526b19195b1959d85d1958d85b1b60a21b606082015260800190565b6020808252602c908201527f46756e6374696f6e206d7573742062652063616c6c6564207468726f7567682060408201526b6163746976652070726f787960a01b606082015260800190565b634e487b7160e01b600052603260045260246000fd5b634e487b7160e01b600052601160045260246000fd5b818103818111156105a4576105a461265b565b808201808211156105a4576105a461265b565b6000602082840312156126a957600080fd5b5051919050565b6020808252602b908201527f496e697469616c697a61626c653a20636f6e7472616374206973206e6f74206960408201526a6e697469616c697a696e6760a81b606082015260800190565b60208082526032908201527f4552433732313a207472616e7366657220746f206e6f6e20455243373231526560408201527131b2b4bb32b91034b6b83632b6b2b73a32b960711b606082015260800190565b6001600160a01b0385811682528416602082015260408101839052608060608201819052600090612780908301846120b6565b9695505050505050565b60006020828403121561279c57600080fd5b815161202e8161205f565b634e487b7160e01b600052603160045260246000fd5b600082516127cf818460208701612092565b919091019291505056fe360894a13ba1a3210667c828492db98dca3e2076cc3735a920a3ca505d382bbc416464726573733a206c6f772d6c6576656c2064656c65676174652063616c6c206661696c6564a2646970667358221220963b6d1bb86be56a182be13b38b07852750e6fbdbd40bb88a00f98cb01eb81d664736f6c63430008100033",
  "linkReferences": {},
  "deployedLinkReferences": {}
}