{
  "_format": "hh-sol-artifact-1",
  "contractName": "SpecDataHolder",
  "sourceName": "src/SpecDataHolder.sol",
  "abi": [
    {
      "inputs": [],
      "stateMutability": "nonpayable",
      "type": "constructor"
    },
    {
      "anonymous": false,
      "inputs": [
        {
          "indexed": false,
          "internalType": "address",
          "name": "previousAdmin",
          "type": "address"
        },
        {
          "indexed": false,
          "internalType": "address",
          "name": "newAdmin",
          "type": "address"
        }
      ],
      "name": "AdminChanged",
      "type": "event"
    },
    {
      "anonymous": false,
      "inputs": [
        {
          "indexed": true,
          "internalType": "address",
          "name": "beacon",
          "type": "address"
        }
      ],
      "name": "BeaconUpgraded",
      "type": "event"
    },
    {
      "anonymous": false,
      "inputs": [
        {
          "indexed": false,
          "internalType": "uint8",
          "name": "version",
          "type": "uint8"
        }
      ],
      "name": "Initialized",
      "type": "event"
    },
    {
      "anonymous": false,
      "inputs": [
        {
          "indexed": true,
          "internalType": "address",
          "name": "previousOwner",
          "type": "address"
        },
        {
          "indexed": true,
          "internalType": "address",
          "name": "newOwner",
          "type": "address"
        }
      ],
      "name": "OwnershipTransferred",
      "type": "event"
    },
    {
      "anonymous": false,
      "inputs": [
        {
          "indexed": true,
          "internalType": "address",
          "name": "implementation",
          "type": "address"
        }
      ],
      "name": "Upgraded",
      "type": "event"
    },
    {
      "inputs": [],
      "name": "getBadgesAddress",
      "outputs": [
        {
          "internalType": "address",
          "name": "",
          "type": "address"
        }
      ],
      "stateMutability": "view",
      "type": "function"
    },
    {
      "inputs": [],
      "name": "getGeorge",
      "outputs": [
        {
          "internalType": "string",
          "name": "",
          "type": "string"
        }
      ],
      "stateMutability": "pure",
      "type": "function"
    },
    {
      "inputs": [],
      "name": "getRaftAddress",
      "outputs": [
        {
          "internalType": "address",
          "name": "",
          "type": "address"
        }
      ],
      "stateMutability": "view",
      "type": "function"
    },
    {
      "inputs": [
        {
          "internalType": "uint256",
          "name": "_raftTokenId",
          "type": "uint256"
        }
      ],
      "name": "getRaftOwner",
      "outputs": [
        {
          "internalType": "address",
          "name": "",
          "type": "address"
        }
      ],
      "stateMutability": "view",
      "type": "function"
    },
    {
      "inputs": [
        {
          "internalType": "string",
          "name": "_specUri",
          "type": "string"
        }
      ],
      "name": "getRaftTokenId",
      "outputs": [
        {
          "internalType": "uint256",
          "name": "",
          "type": "uint256"
        }
      ],
      "stateMutability": "view",
      "type": "function"
    },
    {
      "inputs": [
        {
          "internalType": "address",
          "name": "_raftAddress",
          "type": "address"
        },
        {
          "internalType": "address",
          "name": "_nextOwner",
          "type": "address"
        }
      ],
      "name": "initialize",
      "outputs": [],
      "stateMutability": "nonpayable",
      "type": "function"
    },
    {
      "inputs": [
        {
          "internalType": "string",
          "name": "_specUri",
          "type": "string"
        }
      ],
      "name": "isSpecRegistered",
      "outputs": [
        {
          "internalType": "bool",
          "name": "",
          "type": "bool"
        }
      ],
      "stateMutability": "view",
      "type": "function"
    },
    {
      "inputs": [],
      "name": "owner",
      "outputs": [
        {
          "internalType": "address",
          "name": "",
          "type": "address"
        }
      ],
      "stateMutability": "view",
      "type": "function"
    },
    {
      "inputs": [],
      "name": "proxiableUUID",
      "outputs": [
        {
          "internalType": "bytes32",
          "name": "",
          "type": "bytes32"
        }
      ],
      "stateMutability": "view",
      "type": "function"
    },
    {
      "inputs": [],
      "name": "renounceOwnership",
      "outputs": [],
      "stateMutability": "nonpayable",
      "type": "function"
    },
    {
      "inputs": [
        {
          "internalType": "uint256",
          "name": "_badgeTokenId",
          "type": "uint256"
        },
        {
          "internalType": "uint256",
          "name": "_raftTokenId",
          "type": "uint256"
        }
      ],
      "name": "setBadgeToRaft",
      "outputs": [],
      "stateMutability": "nonpayable",
      "type": "function"
    },
    {
      "inputs": [
        {
          "internalType": "address",
          "name": "_badgesAddress",
          "type": "address"
        }
      ],
      "name": "setBadgesAddress",
      "outputs": [],
      "stateMutability": "nonpayable",
      "type": "function"
    },
    {
      "inputs": [
        {
          "internalType": "address",
          "name": "_raftAddress",
          "type": "address"
        }
      ],
      "name": "setRaftAddress",
      "outputs": [],
      "stateMutability": "nonpayable",
      "type": "function"
    },
    {
      "inputs": [
        {
          "internalType": "string",
          "name": "_specUri",
          "type": "string"
        },
        {
          "internalType": "uint256",
          "name": "_raftTokenId",
          "type": "uint256"
        }
      ],
      "name": "setSpecToRaft",
      "outputs": [],
      "stateMutability": "nonpayable",
      "type": "function"
    },
    {
      "inputs": [
        {
          "internalType": "address",
          "name": "newOwner",
          "type": "address"
        }
      ],
      "name": "transferOwnership",
      "outputs": [],
      "stateMutability": "nonpayable",
      "type": "function"
    },
    {
      "inputs": [
        {
          "internalType": "address",
          "name": "newImplementation",
          "type": "address"
        }
      ],
      "name": "upgradeTo",
      "outputs": [],
      "stateMutability": "nonpayable",
      "type": "function"
    },
    {
      "inputs": [
        {
          "internalType": "address",
          "name": "newImplementation",
          "type": "address"
        },
        {
          "internalType": "bytes",
          "name": "data",
          "type": "bytes"
        }
      ],
      "name": "upgradeToAndCall",
      "outputs": [],
      "stateMutability": "payable",
      "type": "function"
    }
  ],
  "bytecode": "0x60a06040523060805234801561001457600080fd5b5061001d610022565b6100e2565b600054610100900460ff161561008e5760405162461bcd60e51b815260206004820152602760248201527f496e697469616c697a61626c653a20636f6e747261637420697320696e697469604482015266616c697a696e6760c81b606482015260840160405180910390fd5b60005460ff90811610156100e0576000805460ff191660ff9081179091556040519081527f7f26b83ff96e1f2b6a682f133852f6798a09c465da95921460cefb38474024989060200160405180910390a15b565b6080516112d86101196000396000818161034f01528181610398015281816105a1015281816105e1015261067401526112d86000f3fe6080604052600436106100fe5760003560e01c80638da5cb5b11610095578063c58a4ff411610064578063c58a4ff414610283578063d5be4eb0146102b5578063f2fde38b146102d5578063fb749261146102f5578063fc0e204e1461031557600080fd5b80638da5cb5b14610205578063addd190714610223578063b2a0cb6b14610243578063bce6c0251461026357600080fd5b8063485cc955116100d1578063485cc955146101a85780634f1ef286146101c857806352d1902d146101db578063715018a6146101f057600080fd5b806334f87662146101035780633659cfe61461013a5780633664a8e91461015c578063407103981461018a575b600080fd5b34801561010f57600080fd5b5060cc546001600160a01b03165b6040516001600160a01b0390911681526020015b60405180910390f35b34801561014657600080fd5b5061015a610155366004610e7d565b610345565b005b34801561016857600080fd5b5061017c610177366004610ee3565b61042d565b604051908152602001610131565b34801561019657600080fd5b5060cb546001600160a01b031661011d565b3480156101b457600080fd5b5061015a6101c3366004610f25565b610458565b61015a6101d6366004610f74565b610597565b3480156101e757600080fd5b5061017c610667565b3480156101fc57600080fd5b5061015a61071a565b34801561021157600080fd5b506097546001600160a01b031661011d565b34801561022f57600080fd5b5061015a61023e366004611038565b61072e565b34801561024f57600080fd5b5061011d61025e366004611084565b6107b0565b34801561026f57600080fd5b5061015a61027e366004610e7d565b610827565b34801561028f57600080fd5b50604080518082018252600381526233b83960e91b6020820152905161013191906110c1565b3480156102c157600080fd5b5061015a6102d0366004610e7d565b610851565b3480156102e157600080fd5b5061015a6102f0366004610e7d565b61087b565b34801561030157600080fd5b5061015a6103103660046110f4565b6108f1565b34801561032157600080fd5b50610335610330366004610ee3565b61095d565b6040519015158152602001610131565b6001600160a01b037f00000000000000000000000000000000000000000000000000000000000000001630036103965760405162461bcd60e51b815260040161038d90611116565b60405180910390fd5b7f00000000000000000000000000000000000000000000000000000000000000006001600160a01b03166103df60008051602061125c833981519152546001600160a01b031690565b6001600160a01b0316146104055760405162461bcd60e51b815260040161038d90611162565b61040e8161098a565b6040805160008082526020820190925261042a91839190610992565b50565b600060c983836040516104419291906111ae565b908152602001604051809103902054905092915050565b600054610100900460ff16158080156104785750600054600160ff909116105b806104925750303b158015610492575060005460ff166001145b6104f55760405162461bcd60e51b815260206004820152602e60248201527f496e697469616c697a61626c653a20636f6e747261637420697320616c72656160448201526d191e481a5b9a5d1a585b1a5e995960921b606482015260840161038d565b6000805460ff191660011790558015610518576000805461ff0019166101001790555b610520610afd565b60cc80546001600160a01b0319166001600160a01b0385161790556105448261087b565b61054c610b2c565b8015610592576000805461ff0019169055604051600181527f7f26b83ff96e1f2b6a682f133852f6798a09c465da95921460cefb38474024989060200160405180910390a15b505050565b6001600160a01b037f00000000000000000000000000000000000000000000000000000000000000001630036105df5760405162461bcd60e51b815260040161038d90611116565b7f00000000000000000000000000000000000000000000000000000000000000006001600160a01b031661062860008051602061125c833981519152546001600160a01b031690565b6001600160a01b03161461064e5760405162461bcd60e51b815260040161038d90611162565b6106578261098a565b61066382826001610992565b5050565b6000306001600160a01b037f000000000000000000000000000000000000000000000000000000000000000016146107075760405162461bcd60e51b815260206004820152603860248201527f555550535570677261646561626c653a206d757374206e6f742062652063616c60448201527f6c6564207468726f7567682064656c656761746563616c6c0000000000000000606482015260840161038d565b5060008051602061125c83398151915290565b610722610b53565b61072c6000610bad565b565b60cb546001600160a01b031633146107885760405162461bcd60e51b815260206004820181905260248201527f6f6e6c79426164676573436f6e74726163743a20756e617574686f72697a6564604482015260640161038d565b8060c9848460405161079b9291906111ae565b90815260405190819003602001902055505050565b60cc546040516331a9108f60e11b8152600481018390526000916001600160a01b0316908190636352211e90602401602060405180830381865afa1580156107fc573d6000803e3d6000fd5b505050506040513d601f19601f8201168201806040525081019061082091906111be565b9392505050565b61082f610b53565b60cb80546001600160a01b0319166001600160a01b0392909216919091179055565b610859610b53565b60cc80546001600160a01b0319166001600160a01b0392909216919091179055565b610883610b53565b6001600160a01b0381166108e85760405162461bcd60e51b815260206004820152602660248201527f4f776e61626c653a206e6577206f776e657220697320746865207a65726f206160448201526564647265737360d01b606482015260840161038d565b61042a81610bad565b60cb546001600160a01b0316331461094b5760405162461bcd60e51b815260206004820181905260248201527f6f6e6c79426164676573436f6e74726163743a20756e617574686f72697a6564604482015260640161038d565b600091825260ca602052604090912055565b600060c983836040516109719291906111ae565b9081526040519081900360200190205415159392505050565b61042a610b53565b7f4910fdfa16fed3260ed0e7147f7cc6da11a60208b5b9406d12a635614ffd91435460ff16156109c55761059283610bff565b826001600160a01b03166352d1902d6040518163ffffffff1660e01b8152600401602060405180830381865afa925050508015610a1f575060408051601f3d908101601f19168201909252610a1c918101906111db565b60015b610a825760405162461bcd60e51b815260206004820152602e60248201527f45524331393637557067726164653a206e657720696d706c656d656e7461746960448201526d6f6e206973206e6f74205555505360901b606482015260840161038d565b60008051602061125c8339815191528114610af15760405162461bcd60e51b815260206004820152602960248201527f45524331393637557067726164653a20756e737570706f727465642070726f786044820152681a58589b195555525160ba1b606482015260840161038d565b50610592838383610c9b565b600054610100900460ff16610b245760405162461bcd60e51b815260040161038d906111f4565b61072c610cc6565b600054610100900460ff1661072c5760405162461bcd60e51b815260040161038d906111f4565b6097546001600160a01b0316331461072c5760405162461bcd60e51b815260206004820181905260248201527f4f776e61626c653a2063616c6c6572206973206e6f7420746865206f776e6572604482015260640161038d565b609780546001600160a01b038381166001600160a01b0319831681179093556040519116919082907f8be0079c531659141344cd1fd0a4f28419497f9722a3daafe3b4186f6b6457e090600090a35050565b6001600160a01b0381163b610c6c5760405162461bcd60e51b815260206004820152602d60248201527f455243313936373a206e657720696d706c656d656e746174696f6e206973206e60448201526c1bdd08184818dbdb9d1c9858dd609a1b606482015260840161038d565b60008051602061125c83398151915280546001600160a01b0319166001600160a01b0392909216919091179055565b610ca483610cf6565b600082511180610cb15750805b1561059257610cc08383610d36565b50505050565b600054610100900460ff16610ced5760405162461bcd60e51b815260040161038d906111f4565b61072c33610bad565b610cff81610bff565b6040516001600160a01b038216907fbc7cd75a20ee27fd9adebab32041f755214dbc6bffa90cc0225b39da2e5c2d3b90600090a250565b60606001600160a01b0383163b610d9e5760405162461bcd60e51b815260206004820152602660248201527f416464726573733a2064656c65676174652063616c6c20746f206e6f6e2d636f6044820152651b9d1c9858dd60d21b606482015260840161038d565b600080846001600160a01b031684604051610db9919061123f565b600060405180830381855af49150503d8060008114610df4576040519150601f19603f3d011682016040523d82523d6000602084013e610df9565b606091505b5091509150610e21828260405180606001604052806027815260200161127c60279139610e2a565b95945050505050565b60608315610e39575081610820565b6108208383815115610e4e5781518083602001fd5b8060405162461bcd60e51b815260040161038d91906110c1565b6001600160a01b038116811461042a57600080fd5b600060208284031215610e8f57600080fd5b813561082081610e68565b60008083601f840112610eac57600080fd5b50813567ffffffffffffffff811115610ec457600080fd5b602083019150836020828501011115610edc57600080fd5b9250929050565b60008060208385031215610ef657600080fd5b823567ffffffffffffffff811115610f0d57600080fd5b610f1985828601610e9a565b90969095509350505050565b60008060408385031215610f3857600080fd5b8235610f4381610e68565b91506020830135610f5381610e68565b809150509250929050565b634e487b7160e01b600052604160045260246000fd5b60008060408385031215610f8757600080fd5b8235610f9281610e68565b9150602083013567ffffffffffffffff80821115610faf57600080fd5b818501915085601f830112610fc357600080fd5b813581811115610fd557610fd5610f5e565b604051601f8201601f19908116603f01168101908382118183101715610ffd57610ffd610f5e565b8160405282815288602084870101111561101657600080fd5b8260208601602083013760006020848301015280955050505050509250929050565b60008060006040848603121561104d57600080fd5b833567ffffffffffffffff81111561106457600080fd5b61107086828701610e9a565b909790965060209590950135949350505050565b60006020828403121561109657600080fd5b5035919050565b60005b838110156110b85781810151838201526020016110a0565b50506000910152565b60208152600082518060208401526110e081604085016020870161109d565b601f01601f19169190910160400192915050565b6000806040838503121561110757600080fd5b50508035926020909101359150565b6020808252602c908201527f46756e6374696f6e206d7573742062652063616c6c6564207468726f7567682060408201526b19195b1959d85d1958d85b1b60a21b606082015260800190565b6020808252602c908201527f46756e6374696f6e206d7573742062652063616c6c6564207468726f7567682060408201526b6163746976652070726f787960a01b606082015260800190565b8183823760009101908152919050565b6000602082840312156111d057600080fd5b815161082081610e68565b6000602082840312156111ed57600080fd5b5051919050565b6020808252602b908201527f496e697469616c697a61626c653a20636f6e7472616374206973206e6f74206960408201526a6e697469616c697a696e6760a81b606082015260800190565b6000825161125181846020870161109d565b919091019291505056fe360894a13ba1a3210667c828492db98dca3e2076cc3735a920a3ca505d382bbc416464726573733a206c6f772d6c6576656c2064656c65676174652063616c6c206661696c6564a26469706673582212207a88eece7d3481ce6e30d728771c9100cebe24e1a290f619455ea62b83805bfe64736f6c63430008100033",
  "linkReferences": {},
  "deployedLinkReferences": {}
}